:020000040800F2
:1010000000500020197100081771000815710008C0
:101010001571000815710008157100080000000026
:101020000000000000000000000000001771000830
:101030001771000800000000177100081771000800
:101040001571000815710008157100081571000868
:101050001571000815710008157100081571000858
:101060001571000815710008157100081571000848
:101070001571000815710008157100081571000838
:10108000157100081571000815710008BD5700089A
:101090008D570008A5570008157100081571000844
:1010A0001571000815710008157100081571000808
:1010B0001571000815710008611D00081571000800
:1010C00015710008157100081571000815710008E8
:1010D000157100088D590008157100081571000878
:1010E00015710008157100081571000815710008C8
:1010F00015710008157100081571000815710008B8
:1011000015710008157100081571000815710008A7
:101110001571000815710008157100081571000897
:101120001571000815710008157100081571000887
:1011300015710008157100081571000803580008A2
:10114000D3570008EB570008157100081571000807
:1011500080B582B000AF78607B681A687B689B8836
:101160001946104605F096FD0346002B14BF0123D7
:101170000023DBB218460837BD4680BD80B582B07B
:1011800000AF78607B681A687B689B8819461046B8
:1011900005F07BFD00BF0837BD4680BD80B582B03D
:1011A00000AF78607B681A687B689B881946104698
:1011B00005F06DFD00BF0837BD4680BD80B582B02B
:1011C00000AF78607B681A687B689B881946104678
:1011D00005F063FD00BF0837BD4680BD80B400AF99
:1011E000054B1B78042B0CBF01230023DBB21846F0
:1011F000BD4680BC704700BFA804002080B400AF8B
:10120000024B1B681846BD4680BC70479404002002
:1012100080B400AF024B1B681846BD4680BC7047C7
:101220009C04002080B400AF024B1B681846BD46EA
:1012300080BC7047A004002080B400AF024B1B6844
:101240001846BD4680BC7047A404002090B583B00A
:1012500000AF05F02BFD4048FFF7B0FF3F4B1B6888
:10126000184601F06DF903465B017B607B683C4AE0
:1012700082FB03129210DB17D31A1946272001F0C4
:10128000FBF9FFF7ABFF0346002B0FD002F0FEFE89
:10129000FFF7C8FF034619461A2001F0D9F9FFF7F6
:1012A000CBFF034619461B2001F0D2F92D48FFF76A
:1012B0004FFF03461946222001F0CAF905F0F2FB60
:1012C00003461946242001F0C3F92648FFF740FFE2
:1012D000034683F00103DBB2002B1CD0224B1C68B9
:1012E00005F0E0FB0346E31A03F5E1533B601F4BB7
:1012F0001B78002B04D005F0D5FB03461A4A136077
:101300003968232001F0A4F93B68002B08D1184864
:10131000FFF744FF04E04FF0FF31232001F098F97C
:101320001048FFF715FF03461A46104B1A700E209F
:1013300001F07CF90346002B0CBF01230023DBB234
:10134000002B04D00B4B1B68184603F0ABFA00BF10
:101350000C37BD4690BD00BFD0020020EC0000203D
:1013600067666666C8020020F800002004000020BE
:10137000F8020020F000002080B485B000AF0346E2
:10138000FB806423FB600023BB60BB680A2B34DC5A
:101390001D4ABB6832F81330FA889A4229D8BB68D4
:1013A000002B02D10023FB6027E0BB685A1E1346C6
:1013B0009B0013445B00FB60FB88BA68013A12494A
:1013C00031F812209A1A13469B0013445B00194609
:1013D0000D4ABB6832F813301846BB68013B0A4A15
:1013E00032F81330C31A91FBF3F3FA681344FB602D
:1013F00003E0BB680133BB60C7E7FB6818461437DE
:10140000BD4680BC704700BFF471000890B58DB038
:1014100000AF122001F00AF9034687F82F3097F841
:101420002F30052B40F0FC80AF4B1B68184604F0B2
:1014300097FCAD4B1A68AD4B1B689A4205DAAA4B74
:101440001B680133A84A1360FBE0A74B01221A6016
:1014500004F066FD786141F28833BB6200237B6251
:1014600000233B620023FB610023BB619F4B1B6891
:101470009B00BA699A4235DABB695B007A6913440A
:101480001B8841F28732934228D8BB695B007A6996
:1014900013441B88322B21D9BB695B007A69134442
:1014A0001B881A46BB6A934228BF1346BB62BB69BE
:1014B0005B007A6913441B881A467B6A934238BFE3
:1014C00013467B62BB695B007A6913441B881A462A
:1014D0003B6A13443B62FB690133FB61BB69013327
:1014E000BB61C3E73B6A5B01814A82FB0312921135
:1014F000DB17D31A3B61182001F088F802463B69DC
:1015000013443B613969172001F0B6F83A6AFB6968
:10151000B2FBF3F33B62212001F078F80346002B85
:10152000CCBF01230023DBB2002B28D0212001F007
:101530007DF803461A463B6A13443B623B6A5B08EC
:101540003B621F2001F072F803461A46BB6A9342C1
:1015500004D31F2001F06AF8034600E0BB6ABB62B7
:10156000202001F063F803461A467B6A934204D8B0
:10157000202001F05BF8034600E07B6A7B625D4B54
:101580001B685D4A934216D93B6A9BB21846FFF727
:10159000F3FE78607968142001F05AF87968132016
:1015A00001F056F800211A2001F066F800211B20F6
:1015B00001F062F824E0142001F028F8F8601A2005
:1015C00001F024F804461B2001F020F80346E31A3A
:1015D000BB60BB68494A82FB0312D210DB17D31AE7
:1015E000BB60BB685C01042001F010F8034694FB6B
:1015F000F3F3FA681344FB60F968132001F03CF838
:10160000BB6A19461C2001F023F87B6A19461D208D
:1016100001F01EF83B6A19461E2001F019F810E08F
:1016200097F82F30042B0CD12F4B1B68184604F071
:10163000F7FB0346002B04D02B4B1B6801332A4ACF
:10164000136097F82F30092B00F2178101A252F88E
:1016500023F000BF7D160008891600089B160008BD
:10166000151700083717000857170008F11700086A
:101670000F180008471800085518000804F014FB5C
:10168000012387F82F30F8E004F0FEFA022387F8F0
:101690002F301B4B1E221A60EFE004F01BFB0346A9
:1016A000124A1360164B1B68013B154A13600F4B1F
:1016B0001B68002B06DD124B14221A60032387F8E7
:1016C0002F30D1E00E4B1B68002B40F0CD80002363
:1016D00087F82F300B4B1B78002B15D000F0A4FCA3
:1016E000084B00221A70BFE008000020FC00002018
:1016F000D34D62100000002080EE3600398EE338B2
:10170000000100200401002000F0C2FC604B012217
:101710001A70A9E05F4B1B68013B5E4A13605D4B8A
:101720001B68002B40F0A280042387F82F30594B10
:1017300014221A609AE0584B1A68584B1B689A4258
:1017400003DD052387F82F3097E0534B1B681846BD
:1017500004F052FB91E04F4B1B68013B4D4A136074
:10176000002000F063FF0346032B0CBF012300237E
:10177000DBB2002B09D004F0F1FB092387F82F30EE
:101780000021002000F064FF77E0002000F04EFF11
:101790000346012B0CBF01230023DBB2002B07D033
:1017A000002387F82F300021002000F051FF64E073
:1017B000002000F03BFF0346022B0CBF0123002357
:1017C000DBB2002B03D0062387F82F3055E0314BD6
:1017D0001B68002B06DC072387F82F302E4B0122D5
:1017E0001A604AE02C4B1B68184604F0A7FA44E044
:1017F000002000F01BFF0346022B14BF012300232F
:10180000DBB2002B34D0052387F82F3030E0224B99
:101810001C68012000F00AFF03461946204604F028
:1018200033FB1D4B1B6801331B4A13601A4B1A68AC
:101830001A4B1B689A421DDD052387F82F30154B84
:1018400032221A6016E0052387F82F30114B32221E
:101850001A6012E004F098FB38603B68382B0BD11B
:10186000002387F82F3007E000BF06E000BF04E048
:1018700000BF02E000BF00E000BF97F82F3019461C
:10188000122000F0E5FE00BF3437BD4690BD00BF1A
:10189000040100200001002008000020FC000020BE
:1018A00090B589B000AF0B2000F0C0FEF8610C20AD
:1018B00000F0ACFEB861132000F0B8FE0346323BE6
:1018C0007B61BB697A6902FB03F35B11FA6913441C
:1018D0003B61BB695B427A6902FB03F35B11FA6906
:1018E0001344FB60704802F025FB03465B016F4A1E
:1018F00082FB0312D211DB17D31ABB60B968252013
:1019000000F0BAFE3B691A460021694805F037FB32
:10191000FB681A460221664805F031FB102000F0F2
:1019200085FE0346012B0CBF01230023DBB2002BF5
:1019300003D06048FFF722FC65E0102000F076FE3F
:101940000346002B0CBF01230023DBB2002B03D086
:101950005848FFF723FC56E0082000F067FE0346D6
:10196000012B0CBF01230023DBB2002B25D0152057
:1019700000F04CFE04460A2000F048FE03469C425C
:10198000B4BF01230023DBB2002B03D04948FFF78B
:1019900005FC38E0152000F039FE0446092000F06F
:1019A00035FE03469C42CCBF01230023DBB2002B53
:1019B00029D04048FFF7E2FB25E01D2000F036FE6D
:1019C0007860022000F032FE02467B689342CCBF72
:1019D00001230023DBB2002B03D03648FFF7DEFBE8
:1019E00011E0032000F022FE02467B68934204DAF5
:1019F0007B68002B01DD012300E00023002B02D0D7
:101A00002C48FFF7BBFB2C48FFF7A2FB0346002B3B
:101A100003D00021112000F01BFE112000F006FE73
:101A20000346042B2CD801A252F823F0411A0008D7
:101A30004F1A00085D1A00086B1A0008791A00088E
:101A40001E48FFF79BFB1E48FFF798FB18E01B485A
:101A5000FFF794FB1A48FFF7A1FB11E01748FFF7C7
:101A60009DFB1748FFF78AFB0AE01448FFF796FB37
:101A70001348FFF793FB03E01248FFF78FFB00BF0B
:101A80000E2000F0D3FD0346012B0CBF01230023E1
:101A9000DBB2002B04D00C4B1B68184602F002FF8F
:101AA00000BF2437BD4690BD8C040020E5D49A7059
:101AB00000040040E0020020C8020020E8020020EC
:101AC000F0020020F8020020F000002080B58CB069
:101AD00000AF072000F0AAFDB8620023FB6204F00B
:101AE000E1FF0346012B94BF01230023DBB2002B4F
:101AF00040F0C180BB6A012B03D0BB6A002B40F0D1
:101B0000A1805F4802F016FA03467B625D4802F04E
:101B100011FA03463B62052000F078FDF8610620CB
:101B200000F084FDB861BB6A002B03D07A6A3B6A7F
:101B3000D31A00E07B6A7B617A69BB69D31A5B01C7
:101B40005A01FB6992FBF3F3FB62172000F05EFD84
:101B500038613B69FA6A02FB03F35B11FB60F968C9
:101B6000192000F089FDFB6A13F1190F09DA464BC1
:101B70001A68FB6AD31A444A1360444B00221A6065
:101B800011E0FB6A192B09DD414B1A68FB6A13440B
:101B90003F4A13603D4B00221A6004E03B4B1B6838
:101BA00001333A4A13603B4B1A68FB6A1344394AC3
:101BB0001360394B1B680133374A1360364B1B687F
:101BC000B3F57A7F51D11A2000F020FDB8601B20B8
:101BD00000F01CFD78602E4B1B68304AA2FB0323EB
:101BE0009A09BB681344BB60274B1B682B4AA2FBB6
:101BF00003239A097B6813447B60264B1B68274AA2
:101C000082FB03129211DB17D31A224A1360214B75
:101C10001B681946162000F02FFD1D4B00221A608C
:101C2000194B00221A601C4B00221A60194B00222B
:101C30001A60B9681A2000F01FFD79681B2000F0B7
:101C40001BFD12E0FFF7DAFA03465B01134A82FB41
:101C500003129211DB17D31AFB62FFF7D9FA03467E
:101C60001946192000F0F4FC00E000BFF96A1520C5
:101C700000F002FD00E000BF3037BD4680BD00BF70
:101C800088040020840400201001002000000020AF
:101C90000C0100201401002008010020D34D621027
:101CA00090B583B000AF0346FB71FB790F2B11D0C9
:101CB0000F2B3DDC072B16D00D2B39D11F4B1C6889
:101CC0000D2000F0B3FC0346DBB21946204602F0BB
:101CD00037FF2EE00F2000F099FC03461946132031
:101CE00000F0CAFC25E0072000F0A0FC0346022B10
:101CF0000CBF01230023DBB2002B07D00F4B1B6866
:101D0000184602F0A5F902F0B1F911E0072000F041
:101D10008DFC0346032B0CBF01230023DBB2002BF9
:101D200006D0074B1B68184602F092F902F09EF9A4
:101D300000BF00BF0C37BD4690BD00BFF0000020C3
:101D4000F400002080B582B000AF78603960396857
:101D5000786802F0E3F900BF0837BD4680BD000097
:101D600080B500AF034B1B68184600F091FB00BF25
:101D700080BD00BFEC00002080B5ADF6282D00AF7F
:101D800000F00CF900F093FA00F0B2F900F0A0FABC
:101D900000F078FA00F084FD02F0BCFB00226749F5
:101DA000674802F0A1F801226449664802F09CF8F5
:101DB00004226249644802F097F8002310225F4928
:101DC000624801F0F1FC04234FF40052604961487D
:101DD00001F0EAFC04234FF400725F495F4801F010
:101DE000E3FC04234FF4807254495D4801F0DCFCAD
:101DF0000523012258495B4801F0D6FC0523022245
:101E00005549594801F0D0FC012301225049574857
:101E100001F0CAFC01F0F6FF0D2000F007FC0346BC
:101E2000DAB207F5A5635249184602F0D9FD0D2034
:101E300000F0FCFB0346DAB207F128034D491846CF
:101E400002F0CEFD4C4A07F5A56313604B4A07F13B
:101E50002803136007F5A5634949184602F03EFCC4
:101E600007F128034649184602F038FC07F5A56338
:101E700040F21151184602F03FFC07F5A56340F20D
:101E80002151184602F038FC07F5A56340F22251B3
:101E9000184602F031FC07F5A56340F226511846BA
:101EA00002F02AFC07F1280340F21151184602F013
:101EB00023FC07F1280340F22151184602F01CFCD4
:101EC00007F1280340F22251184602F015FC07F1F1
:101ED000280340F22651184602F00EFC3B462949E1
:101EE000184600F03FFA284A3B4613603B46012261
:101EF0002649184600F06EFA3B460A222449184645
:101F000000F068FA3B4628222249184600F062FA9F
:101F10003B4664222049184600F05CFA0720FFF790
:101F2000BFFE0421262000F093FB00F0BFFC00233D
:101F3000184607F62827BD4680BD00BF00080140AF
:101F400084040020880400208C040020C8020020A3
:101F500000100140D0020020000C0140D8020020F7
:101F6000E0020020E8020020F0020020F802002039
:101F70000064004000680040F0000020F4000020F1
:101F8000451D000800080040EC000020CD1A0008A4
:101F9000A11800080D1400084D12000880B500AF0C
:101FA00004F0DEFC1E4B1F4A1A6040F2023005F0BE
:101FB00060F840F2033005F05CF84FF4417005F032
:101FC00058F840F2053005F054F840F20E3005F0B4
:101FD00050F840F2923005F04CF840F2813005F0B4
:101FE00048F840F2823005F044F84FF4207005F0D4
:101FF00040F840F2093005F03CF840F2862005F048
:1020000038F84FF4407005F034F840F2993005F09C
:1020100030F840F29A3005F02CF800BF80BD00BFC8
:102020000CED00E00003FA0580B500AF154B1B680E
:10203000144A23F0040313604FF4007302220321B7
:10204000114804F043FB4023012200210F4804F013
:102050003DFB8023002203210C4804F037FB802144
:102060000A4804F012FE4FF4806302220021064861
:1020700004F02CFB4FF48061034804F008FE00BF1D
:1020800080BD00BF0400014000080140000C014079
:1020900080B500AF4FF48271002004F047FB4FF48D
:1020A000007301220021104804F010FB402302229B
:1020B00003210E4804F00AFB8023022200210B4872
:1020C00004F004FB8021094804F0DFFD4FF4806335
:1020D00000220321044804F0F9FA4FF48061024819
:1020E00004F0D5FD00BF80BD00080140000C014098
:1020F00080B500AF4FF48063022203215A4804F0F8
:10210000E5FAFFF791FF42F21071584804F050FFD2
:102110000821564804F060FF4FF40051534804F082
:1021200064FF0821514804F06CFF00214F4804F07F
:1021300062FF00214D4804F06AFF4D4B1B684C4A7A
:1021400043F040031360494804F077FF474804F028
:1021500079FF0521474804F00DFD474A0521454810
:1021600004F074FD00220521424804F031FD0022F4
:102170000521404804F01FFD05213E4804F035FDCF
:1021800004213C4804F0F6FC04213A4804F043FDE5
:10219000394A0421374804F059FD0022042135480A
:1021A00004F016FD00220421324804F004FD04214D
:1021B000304804F01AFD2D4804F02FFF4FF4E131B0
:1021C0002E4804F0F5FE08212C4804F005FF0021FC
:1021D0002A4804F00AFF0C21284804F012FF0021CD
:1021E000264804F008FF0021244804F010FF23488B
:1021F00004F023FF214804F025FF02211D4804F0CC
:10220000B9FC02211B4804F006FD1D4A02211948B1
:1022100004F01CFD00220221164804F0D9FC002223
:102220000221144804F0C7FC0221124804F0DDFC2E
:102230000321104804F09EFC114A03210D4804F0CC
:1022400005FD002203210B4804F0C2FC00220321FB
:10225000084804F0B0FC0321064804F0C6FC074817
:1022600004F0DBFE00BF80BD000C014000380140DF
:102270000C38014000000240043801400048004092
:102280000448004080B500AF1B2004F095FF1021EA
:102290001E2004F09FFF252004F08EFF1E2004F076
:1022A0008BFFE0211E2004F095FF00BF80BD80B5AC
:1022B00000AF4FF22541032004F026FC4FF22540E9
:1022C00004F0E0FB002004F0F7FB00BF80BD00003D
:1022D00080B500AF214804F01FFD00211F4804F025
:1022E00007FD1E4804F0FFFC062200211B4804F0F5
:1022F0001CFD06220221194804F017FD0021174891
:1023000004F0D9FD0221154804F0D5FD0021134841
:1023100004F0EBFD0221114804F0E7FD00210F4815
:1023200004F008FE02210D4804F004FE01210B48D0
:1023300004F035FE0021094804F0F3FC4FF480510D
:10234000064804F0F0FC054804F0E1FCC02302223A
:102350000321034804F0BAF900BF80BD0004004027
:102360000008014080B584B000AF786039607B68B8
:102370003A681A62386804F0B6FC386804F0C2FCA7
:1023800040F2CF21386804F0CCFC4FF6FF7138687A
:1023900004F0C9FC0023FB60FB68032B0FDC7B68A7
:1023A000FA680B4943F822107B68FA6808324FF646
:1023B000FF7123F81210FB680133FB60ECE77B68C8
:1023C00000225A627B6818461037BD4680BD00BFA8
:1023D0009925000880B584B000AFF860B960134655
:1023E000FB80FB685B6A032B4BDCFB681B6A1846AF
:1023F00004F092FCFB68186AFB685B6A234AD35CB2
:102400000122194604F091FCFB68186AFB685B6ABC
:102410001E4AD35C0022194604F0B1FDFB685A6ADB
:10242000FB68B96843F82210FB685A6AFB881946B2
:1024300089000B4419468800194603460B449B004B
:1024400099B2FB68083223F81210FB681A6AFB681D
:102450005B6A022101FA03F31946104604F036FCC8
:10246000FB681B6A0021184604F09FFDFB681B6A8D
:10247000184604F04CFCFB685B6A5A1CFB685A6205
:1024800000E000BF1037BD4680BD00BF0C720008E1
:1024900080B584B000AF78600023FB60FB68032B3D
:1024A0004ADC7B681A6A0221FB6801FA03F31946C9
:1024B000104604F00FFC0346002B39D07B681B6AE2
:1024C000184604F070FD03467B817B681A6A02217E
:1024D000FB6801FA03F31946104604F001FCFB689F
:1024E0009A007B681B6A134434331B687A68F96866
:1024F000083132F811201046FA6891007A68126AA1
:102500000A443432034413607B68FA6853F822307B
:1025100098477B681B6A184604F045FD03469AB24B
:102520007B89D31A99B27B68FA680C3223F81210AF
:10253000FB680133FB60B1E700BF1037BD4680BDCB
:1025400080B487B000AF786000237B6100233B61DB
:102550003B69032B1ADC7B683A690C3233F8123082
:102560001A4613469B0013445B0019467B683A6980
:10257000083233F8123091FBF3F3FB607A69FB68A1
:1025800013447B613B6901333B61E1E77B6918469A
:102590001C37BD4680BC704780B400AF00BFBD464D
:1025A00080BC704780B584B000AF03463960FB71D2
:1025B000FF23FB73FA7913491346DB009B1A9B0038
:1025C0000B440C331B683A689A4216DBFA790D49C2
:1025D0001346DB009B1A9B000B4410331B683A68C0
:1025E0009A420ADCFB7908493A6841F82320FB79D2
:1025F0001846FFF755FB0023FB73FB7B184610378B
:10260000BD4680BD787500080C00002080B483B002
:1026100000AF0346FB71FB79034A52F8233018469A
:102620000C37BD4680BC70470C00002080B483B0DE
:1026300000AF0346FB71FB79044A52F823305B116B
:1026400018460C37BD4680BC704700BF0C00002008
:1026500080B483B000AF03463960FB71FB793A6800
:102660005201044941F8232000BF0C37BD4680BC0D
:10267000704700BF0C00002080B483B000AF034659
:102680003960FB71FB7904493A6841F8232000BFA7
:102690000C37BD4680BC70470C00002080B586B06A
:1026A00000AF78602923FB75114B3B610023FB6071
:1026B000FB68272B17DC3B695B687968184600F0DC
:1026C00009FF0346002B0CBF01230023DBB2002BC4
:1026D00002D0FB68FB7506E0FB680133FB603B69D9
:1026E0001C333B61E4E7FB7D18461837BD4680BDCF
:1026F0007875000880B487B000AF78602923FB7537
:102700000D4B3B610023FB60FB68272B0EDC3B6914
:102710009B697A689A4202D1FB68FB7506E0FB6808
:102720000133FB603B691C333B61EDE7FB7D1846E1
:102730001C37BD4680BC70477875000880B483B0F4
:1027400000AF0346FB71FA791346DB009B1A9B002E
:10275000034A134418460C37BD4680BC704700BF7F
:102760007875000880B483B000AF0346FB71FA7936
:102770000D491346DB009B1A9B000B440C33196870
:10278000FA7909481346DB009B1A9B000344103377
:102790001B68994214BF01230023DBB218460C3793
:1027A000BD4680BC704700BF7875000880B582B018
:1027B00000AF0F4B7B6000233B603B68272B12DC94
:1027C0007B689B69002B07D03B68DAB27B685B694A
:1027D00019461046FFF750FF3B6801333B607B68AA
:1027E0001C337B60E9E700BF0837BD4680BD00BFF2
:1027F0007875000880B483B000AF03460A46FB71C9
:102800001346BB71FB790449BA79CA5400BF0C372F
:10281000BD4680BC704700BF1801002080B483B063
:1028200000AF03460A46FB711346BB71FB79064AAB
:10283000D15CFB79BA790A43D1B2034AD15400BFC3
:102840000C37BD4680BC70471801002080B483B0AF
:1028500000AF03460A46FB711346BB71FB79074A7A
:10286000D15CBB79DB43DAB2FB790A40D1B2034ACF
:10287000D15400BF0C37BD4680BC70471801002002
:1028800080B483B000AF0346FB71FB79034AD35C8D
:1028900018460C37BD4680BC704700BF18010020A9
:1028A00080B500AF00F030F900BF80BD80B5A6B0A4
:1028B00000AF0023C7F894300023C7F890300321FD
:1028C000504804F0D5F90346C7F88830D7F8883067
:1028D000C3F18003C7F88430D7F88830002B0ED1BD
:1028E00000F012F90BE0D7F890305A1CC7F890208E
:1028F000454AD35C9BB21946444804F093FBD7F891
:102900009020D7F884309A42EDDBD7F88430002B42
:10291000D5DDD7F88430013B3B4AD35C0A2B06D087
:10292000D7F88430013B384AD35C0D2B51D1364A5D
:10293000D7F88430134400221A700023C7F890306F
:102940002021314800F025FEC7F88C00D7F88C30E4
:102950001B78002B08D10A212B4800F01AFEC7F87B
:102960008C0000233B7107E0D7F88C305A1C3B1DCC
:102970001146184600F0DAFDD7F88C301B78002B92
:1029800005D10D21204800F004FEC7F88C00D7F8CF
:102990008C3000221A701C4800F0D2F8C7F894005E
:1029A00000F0B2F8D7F89430002B09D0174804F0A3
:1029B00056FBD7F894305B683A1D104698471EE0E6
:1029C000D7F88430012B1ADD1149104800F0DEF8E9
:1029D00015E00D4B1B78212B7FF471AFD7F89430A5
:1029E000002B3FF46CAF00F08FF80023C7F8903055
:1029F000D7F894305B683A1D104698475FE700BFF0
:102A00005DE700BF00000240400100200048004098
:102A1000D879000880B582B000AF78607B680A2B57
:102A200003D0344B1B687F2B4DD1334B1A68314B8D
:102A30001B687968C8B23149D2010A44134402467E
:102A40001A7000BF022202212D4804F0AAF80346A2
:102A500083F00103DBB2002B03D02A4B1B68002B51
:102A6000F0D00221264804F0E8F8224B1B689BB204
:102A700001339BB21A460221214804F000F91E4B93
:102A80001B68DB011D4A13441A4602211C4804F04E
:102A9000E6F8022202211A4804F07DF802211848C3
:102AA00004F0C2F8144B1B68002B0CBF0123002359
:102AB000DBB21A46104B1A60124B00221A600D4B03
:102AC00000221A6010E00C4B1A680A4B1B687968E8
:102AD000C8B20A49D2010A44134402461A70054B8F
:102AE0001B680133034A1360002318460837BD46AC
:102AF00080BD00BFC0020020C4020020C001002031
:102B000000000240AC00002080B500AF03210A485D
:102B100004F093F8094B1A460321074804F09FF884
:102B200080220321044804F0AAF80321024804F09B
:102B30007BF800BF80BD00BF0000024040010020C4
:102B400080B584B000AF78600F4BFB600BE0FB6892
:102B50001B681946786800F0BDFC0346002B07D0BF
:102B6000FB680833FB60FB681B68002BEFD100E0BB
:102B700000BFFB681B68002B01D10023FB60FB68D2
:102B800018461037BD4680BDAC7E000880B582B0C7
:102B900000AF7860396009E03B681B789BB219464A
:102BA000786804F03FFA3B6801333B603B681B7870
:102BB000002BF1D100BF00BF0837BD4680BD80B4F7
:102BC00083B000AF786000BF0C37BD4680BC704753
:102BD00080B588B002AFB9607A603B600346FB7392
:102BE000FB7B1846FFF7AAFD03465B687B610E4836
:102BF00001F0CEF897F82430002B03D00B4801F0F9
:102C0000C7F802E00A4801F0C3F83B6A01933B6849
:102C100000937B68BA687969064801F0B9F800BF8B
:102C20001837BD4680BD00BF6C7A0008747A000872
:102C3000787A00087C7A0008B0B58EB002AF786070
:102C4000292387F8273004233B62786800F052FD7F
:102C500078607B681B78702B08D1002002F06EF83A
:102C600003467A49184602F011F8ECE07B681B78BD
:102C7000632B0AD1002002F061F80346184601F0E8
:102C800079FE734801F084F8DDE07B681B78FB7700
:102C90002021786800F07DFC78607B681B78002B31
:102CA00003D16C4801F074F8CDE0786800F022FDA3
:102CB00078602021786800F06CFCB861BB691B78F3
:102CC000002B06D1FB7F642B03D0624801F060F833
:102CD000B9E0BB6900221A707868FFF7DFFC034691
:102CE00087F82730BB690133184600F003FD786090
:102CF00097F82730292B03D1574801F049F8A2E073
:102D0000FB7F642B0FD1002002F018F8024697F8E1
:102D100027301946104601F044FEF862F96A4F4820
:102D200001F036F88FE00023BB62BB6A032B27DC7F
:102D30002021786800F02DFCB861BB691B78002B5E
:102D400006D1BB6A022B03DC424801F021F87AE08D
:102D5000BB6900221A70786800F099FC0246BB6AD1
:102D60009B0007F130010B4443F8282CBB69013369
:102D7000184600F0BFFC7860BB6A0133BB62D4E741
:102D8000FB7F742B13D1002001F0D8FF0546B868F3
:102D9000FC683B697A6912B297F827100192009398
:102DA00023460246284601F05FFCF86212E000204C
:102DB00001F0C4FF0546B868FC683B697A6912B245
:102DC00097F827100192009323460246284601F007
:102DD00065FCF862FB6A0533042B29D801A252F87E
:102DE00023F000BF1D2E0008292E0008112E000818
:102DF000052E0008F92D0008BB681946184800F098
:102E0000C7FF20E0FB681946164800F0C1FF1AE032
:102E10003B691946144800F0BBFF14E0BB68194633
:102E2000124800F0B5FF0EE0114800F0B1FF0AE0D3
:102E3000FB6A012B01DD0F4B00E00F4B1A46F96ACC
:102E40000E4800F0A5FF3037BD46B0BDD12B0008BD
:102E5000907A0008B47A0008C87A0008DC7A000882
:102E6000F47A0008087B00081C7B0008307B00080F
:102E7000587B0008747B0008787B00087C7B000886
:102E8000F0B597B004AF7860202387F8473002F0A0
:102E900021FF786303F044F8386303F04BF8F862DD
:102EA00003F052F8B8626B4800F072FF00233B64F5
:102EB0003B6C272B77D83B6CDBB21846FFF73EFC08
:102EC00078623B6CDBB21846FFF7DAFC034603F08E
:102ED0000103002B0CBF01230023DBB2002B5ED0CB
:102EE00097F847407B6A5D687B6A9E683B6CDBB203
:102EF0001846FFF78BFB0346009333462A462146CC
:102F0000554800F045FF002001F018FF04463B6CD7
:102F1000D9B207F1140007F1180207F10F03029369
:102F200007F10803019307F11003009303462046BD
:102F300001F009FC0346002B10D0B96978693C699F
:102F4000BB68FA7B002A01D0444A00E0444A01925F
:102F5000009323460246434800F01AFF3B6CDBB265
:102F60001846FFF7FFFB0346002B14BF0123002385
:102F7000DBB2002B0DD07B6AD9687B6A1A697B6A49
:102F800058697B6A1B6800930346374800F000FFCE
:102F900002E0364800F0FCFE2C2387F847303B6CFB
:102FA00001333B6484E70023FB63FA6B7B6B9A423B
:102FB00048DAFA6B13465B0013445B001A46BB6A9F
:102FC00013443B620023BB63BB6B032B14DCFB6B22
:102FD0009A00BB6B13445B003A6B13441B88FB8362
:102FE000FB6B591CBB6B5A1CFB8B214800F0D0FEBD
:102FF000BB6B0133BB63E7E7FB6B591CFB6BFA6AE6
:10300000134493F900301A461A4800F0C1FEFB6BD6
:10301000591C3B6A1B7818463B6A01331B781C46D7
:103020003B6A02331B781A463B6A03331B780193D1
:10303000009223460246104800F0AAFEFB6B0133C3
:10304000FB63B2E70D4800F0A3FE00BF4C37BD465E
:10305000F0BD00BFA87B0008AC7B0008D47B000853
:10306000DC7B0008E47B0008287C0008707C0008FA
:10307000847C0008C07C0008FC7C0008447D0008BB
:1030800080B586B000AF7860786800F033FB786078
:103090002C21786800F07DFA78617B691B78FB74DD
:1030A0007B6900221A707868FFF7F8FA0346BB7450
:1030B000BB7C292B09D0BB7C1846FFF7A7FAF86028
:1030C000F9680B4800F064FE03E07968094800F0F5
:1030D0005FFE7B69FA7C1A707B6901337B607B69D8
:1030E0001B782C2B00D1D3E700BF1837BD4680BD1D
:1030F0004C7D0008547D000880B58CB000AF78602E
:103100000A233B620023FB624FF0FF33BB62786807
:1031100000F0F0FA7860786800F0B9FAB86220211F
:10312000786800F036FA78607B681B78002B03D152
:103130003D4800F02DFE73E07B6801337B602C215D
:10314000786800F026FA78627B6A1B78FB777B6AE6
:1031500000221A707868FFF7A1FA0346BB777B6AF2
:10316000FA7F1A707B6A01337B60BB7F292B09D001
:1031700007F10C02FB6A1344BA7F1A70FB6A013331
:10318000FB6202E0294800F003FE7B6A1B782C2BCF
:1031900004D1FA6A3B6A9A4200DAD0E7FB6A3B62E2
:1031A000234803F058FF2021214803F05CFF034629
:1031B00083F00103DBB2002B08D0BB6A002B03DCD9
:1031C000BB6AB3F1FF3F01D1012300E00023002BD4
:1031D00026D0184B7B620023FB62FA6A3B6A9A4254
:1031E00013DA07F10C02FB6A13441B781846FFF749
:1031F0000DFAB861BA69796A0F4800F0C9FD0F4B42
:103200007B62FB6A0133FB62E7E70D4800F0C0FD1B
:10321000BB6AB3F1FF3FC6D0BB6A013BBB62C2E7EA
:103220003037BD4680BD00BF707D0008C87A0008F9
:1032300000480040787B0008907D0008987D0008D9
:103240009C7D000880B582B000AF7860FFF7AEFAD1
:10325000034800F09DFD00BF0837BD4680BD00BF9C
:10326000A07D000880B586B000AF7860786800F077
:1032700041FA78602021786800F08BF978617B69E9
:103280001B78002B03D1194800F082FD2AE07B69EE
:1032900000221A707B6901337B61786900F030FB92
:1032A00038617868FFF7FAF90346FB73FB7B292B3B
:1032B00014D0FB7B39691846FFF774F90346002BDD
:1032C0000CBF01230023DBB2002B03D0084800F021
:1032D0005FFD07E0074800F05BFD03E07968064802
:1032E00000F056FD1837BD4680BD00BFB47D000814
:1032F000D07D0008DC7D0008F47D000880B584B036
:1033000000AF7860786800F0F5F97860202178687F
:1033100000F03FF9F860FB681B78002B03D12B48C5
:1033200000F036FD4FE0FB6800221A70FB680133A5
:10333000FB607868FFF7B2F903467B727B7A292B32
:103340003DD00023FB720023BB72FB681B78212B4E
:1033500007D0FB681B787E2B03D0FB681B782F2BD4
:1033600004D10123FB72FB680133FB60F968184844
:1033700000F0B0F80346002B0CBF01230023DBB2A2
:10338000002B01D00123BB72BB7A002B13D0FB7A38
:10339000002B06D0BA7A7B7A11461846FFF756FA08
:1033A00005E0BA7A7B7A11461846FFF737FA0948E2
:1033B00000F0EEFC07E0084800F0EAFC03E0796862
:1033C000064800F0E5FC1037BD4680BD0C7E0008C5
:1033D0001C7E0008247E0008387E0008F47D00086A
:1033E00080B584B000AF786000F09CFFF860F968A9
:1033F000084800F0CDFC002001F0A0FC0346184670
:1034000001F006FA044800F0C3FC00BF1037BD46C7
:1034100080BD00BF487E0008647E000880B582B091
:1034200000AF786001F076F80346002B0CBF012353
:103430000023DBB2002B06D00020FEF731FC05484C
:1034400000F0A6FC02E0044800F0A2FC00BF083730
:10345000BD4680BD747E0008887E000880B582B0BD
:1034600000AF786001F0A4F800BF0837BD4680BD0A
:1034700080B582B000AF7860064B1968064B1A68B9
:10348000064B1B68064800F083FC00BF0837BD46AA
:1034900080BD00BFF0F7FF1FECF7FF1FE8F7FF1F2D
:1034A000A07E000880B483B000AF786000BF0C3706
:1034B000BD4680BC704780B582B000AF786003F035
:1034C00073FE80B483B000AF786000BF0C37BD4698
:1034D00080BC704780B485B000AF7860396000234D
:1034E000FB600BE07B681A783B681B789A420ED130
:1034F0007B6801337B603B6801333B607B681B78F2
:10350000002B05D03B681B78002BEBD100E000BFFF
:103510007B681A783B681B789A4201D00123FB60D4
:10352000FB6818461437BD4680BC704780B483B032
:1035300000AF7860396009E03B681A787B681A70E0
:103540007B6801337B603B6801333B603B681B78E1
:10355000002BF1D17B6800221A7000BF0C37BD46EA
:1035600080BC704780B485B000AF78600023FB60FA
:1035700005E07B6801337B60FB680133FB607B689F
:103580001B78002BF5D1FB6818461437BD4680BC6C
:10359000704780B483B000AF78600B46FB7002E0E8
:1035A0007B6801337B607B681B78002B04D07B68D1
:1035B0001B78FA789A42F3D17B6818460C37BD46DF
:1035C00080BC704780B489B000AFF860B9607A60A1
:1035D000FB68FB610023BB61BB68002B0FDAFB6853
:1035E0002D221A70FB680133FB60FB690133FB611C
:1035F000BB690133BB61BB685B42BB6023E0BB6856
:10360000002B20D1FB6830221A70FB6801330022A6
:103610001A70012336E0BB687A6893FBF2F279688E
:1036200001FB02F29B1ADBB23033DAB2FB681A708C
:10363000BA687B6892FBF3F3BB60FB680133FB6005
:10364000BB690133BB61BB68002BE4DCFB68002273
:103650001A70FB68013BFB600FE0FB691B78FB7590
:10366000FB681A78FB691A70FB68FA7D1A70FB68B0
:10367000013BFB60FB690133FB61FA68FB699A421D
:10368000EBD8BB6918462437BD4680BC704780B470
:1036900085B000AF78600023FB600123BB607B68CE
:1036A0001B782D2B15D14FF0FF33BB607B680133A6
:1036B0007B600EE0FA6813469B0013445B00FB60DE
:1036C0007B681B78303BFA681344FB607B680133EE
:1036D0007B607B681B782F2B03D97B681B78392B89
:1036E000E8D9BB68FA6802FB03F318461437BD46F5
:1036F00080BC704780B584B000AF786002E07B6822
:1037000001337B607B681B78202BF8D07B681B78AB
:103710000A2BF4D07B681B780D2BF0D07B681B78CC
:10372000002B01D17B6820E07868FFF71BFF034680
:10373000013B7A681344FB6002E0FB68013BFB60DD
:10374000FA687B689A420BD9FB681B78202BF4D06F
:10375000FB681B780A2BF0D0FB681B780D2BECD094
:10376000FB68013300221A707B6818461037BD468B
:1037700080BD80B485B000AFF860B9607A6007E0C2
:10378000BA68131DBB60FB68191DF96012681A60E6
:103790007B685A1E7A60002BF2D100BF00BF14373D
:1037A000BD4680BC7047000080B586B000AFF860B1
:1037B000B96011461A460B46FB8013467B71002305
:1037C000FB750223BB750023BB82FB68BA681A60D5
:1037D000FB68FA889A807B79013B042B21D801A2EF
:1037E00052F823F0F9370008FF37000805380008C1
:1037F0000B380008153800080123BB8212E00123B2
:10380000BB750FE00023BB750CE00323FB750023A1
:10381000BB7507E00323FB750123BB750123BB8246
:1038200000E000BFBB8A012B04D1FB881946B868B1
:1038300003F02BFAFB88BA7DF97DB86802F046FFE9
:1038400000BF1837BD4680BD80B588B000AF786036
:1038500039603B68002B02DA4FF0FF3300E00123B0
:103860007B617B693A6802FB03F35B113B617B6917
:103870003A6802FB03F303F01F03642202FB03F325
:103880005B11FB607B68FB617B69002B05DAFB69E0
:103890002D221A70FB690133FB610A223969F8692C
:1038A000FFF790FE03461A46FB691344FB61FB6970
:1038B0002E221A70FB690133FB610A23BB610FE002
:1038C000FA68BB699A4205D2FB6930221A70FB691B
:1038D0000133FB61BB69094AA2FB0323DB08BB611F
:1038E000BB69012BECD8FB680A221946F869FFF77F
:1038F00069FE7B6818462037BD4680BDCDCCCCCC58
:1039000080B487B000AF786000237B6100233B6107
:103910000A23FB600123BB607B681B782D2B15D12C
:103920004FF0FF33BB607B6801337B600EE07A6948
:1039300013469B0013445B007B617B681B78303B24
:103940007A6913447B617B6801337B607B681B78F9
:103950002F2B03D97B681B78392BE8D97B681B7820
:10396000002B1ED07B6801337B6012E07B681B78E4
:10397000303B5A01FB6892FBF3F33A6913443B6115
:10398000FA6813469B0013445B00FB607B680133BD
:103990007B607B681B782F2B03D97B681B78392BC6
:1039A000E4D97B695A013B691344BA6802FB03F30B
:1039B00018461C37BD4680BC704780B582B000AF4A
:1039C000786039607B68002B0AD07B681B683A6896
:1039D000D2B21A707B681B685A1C7B681A6002E0BE
:1039E0003868FFF717F800BF0837BD4680BD2DE9DE
:1039F000F04184B000AFF860B9607A603B600024A9
:103A00004FF020087B68002B17DD0025BE6801E021
:103A1000013501363378002BFAD17B689D4202DBF9
:103A200000237B6002E07B685B1B7B603B6803F0EC
:103A30000203002B01D04FF030083B6803F0010374
:103A4000002B16D107E04146F868FFF7B6FF0134B6
:103A50007B68013B7B607B68002BF4DC09E0BB6882
:103A60001B781946F868FFF7A8FF0134BB680133DB
:103A7000BB60BB681B78002BF1D107E04146F868BA
:103A8000FFF79BFF01347B68013B7B607B68002B69
:103A9000F4DC234618461037BD46BDE8F0812DE919
:103AA000F04389B000AFF860B9607A603B604FF0D6
:103AB00000090026BD68BB68002B0CD130233B7584
:103AC00000237B7507F114017B6C3A6CF868FFF7F3
:103AD0008EFF03464AE03B68002B0AD07B680A2B26
:103AE00007D1BB68002B04DA4FF00109BB685B42C9
:103AF0001D4607F114040B340023237015E07B6886
:103B0000B5FBF3F202FB03F3EB1A9846B8F1090F89
:103B100002DDBB6C3A3B98445FFA88F3013C3033DA
:103B2000DBB223707B68B5FBF3F5002DE7D1B9F16B
:103B3000000F13D03B6C002B0DD07B6C03F0020305
:103B4000002B08D02D21F868FFF737FF01363B6CBA
:103B5000013B3B6402E0013C2D2323707B6C3A6CFB
:103B60002146F868FFF743FF0346334418462437DD
:103B7000BD46BDE8F08380B588B000AFF860B9609D
:103B80007A603B6007F11403B9681846FFF75CFEE2
:103B900007F114013B687A68F868FFF728FF0346CD
:103BA00018462037BD4680BD2DE9F0418AB004AFEC
:103BB000F860B9607A600024D4E0BB681B78252BDC
:103BC00040F0C380BB680133BB6000263546BB684C
:103BD0001B78002B00F0CC80BB681B78252B00F0F5
:103BE000B680BB681B782D2B09D1BB680133BB6045
:103BF000012604E0BB680133BB6046F00206BB68E7
:103C00001B78302BF6D00BE02B469B002B445B003F
:103C10001D46BB681B78303B1D44BB680133BB604D
:103C2000BB681B782F2B03D9BB681B78392BEBD9CA
:103C3000BB681B78732B12D17B681A1D7A601B68D6
:103C40009846B8F1000F01D0414600E04F49334695
:103C50002A46F868FFF7CBFE03461C447FE0BB68AA
:103C60001B78642B0FD17B681A1D7A601968612359
:103C700002930196009501230A22F868FFF70FFFCF
:103C800003461C446BE0BB681B78782B0FD17B6824
:103C90001A1D7A601968612302930196009500232A
:103CA0001022F868FFF7FBFE03461C4457E0BB6890
:103CB0001B78582B0FD17B681A1D7A601968412335
:103CC00002930196009500231022F868FFF7E7FEA3
:103CD00003461C4443E0BB681B78752B0FD17B68FF
:103CE0001A1D7A60196861230293019600950023DA
:103CF0000A22F868FFF7D3FE03461C442FE0BB6896
:103D00001B78662B0BD17B681A1D7A6019683346C5
:103D10002A46F868FFF72FFF03461C441FE0BB68E4
:103D20001B78632B1BD17B681A1D7A601B68DBB282
:103D30003B7500237B7507F1140133462A46F8686A
:103D4000FFF755FE03461C4409E000BF00E000BF3A
:103D5000BB681B781946F868FFF72FFE0134BB6873
:103D60000133BB60BB681B78002B7FF426AF00E0FB
:103D700000BFFB68002B03D0FB681B6800221A7091
:103D8000234618461837BD46BDE8F0812C7F000851
:103D90000FB480B582B000AF07F114037B607A687E
:103DA00039690020FFF700FF034618460837BD4673
:103DB000BDE8804004B0704780B483B000AF786045
:103DC00039603B685B00054A1A447B681A607B686F
:103DD00018460C37BD4680BC704700BF0403002066
:103DE00080B483B000AF78607B681B68044A9B1A7C
:103DF0005B109BB218460C37BD4680BC704700BFB5
:103E00000403002080B582B000AF314802F0AFF962
:103E10002F4802F0B1F92E4802F0B8F92C4802F010
:103E2000B0F906212A4802F08DF9294802F05DF91F
:103E300000237B607B68274A9342D4BF0123002381
:103E4000DBB2002B03D07B6801337B60F2E72048B4
:103E500002F05BF91E4802F06BF91F4A03211C486F
:103E600002F099F91A4802F0D9F91C4A01211C48BC
:103E700002F0ECFE1B4B1A460121194802F0EFFE3E
:103E80004FF480720121164802F0A2FE4FF48062C6
:103E90000121134802F08FFEC0220121104802F0D8
:103EA000EEFE01210E4802F0A0FE01210C4802F0B6
:103EB000A5FE01210A4802F0B7FE054802F0A4F968
:103EC000034802F01AF900BF0837BD4680BD00BFA5
:103ED000002401407F380100000300204C240140F1
:103EE0000000024004030020B0B584B000AFF860C9
:103EF000B9601346FB71FB79012202FA03F39BB20E
:103F000000220021B86802F0E1FBFC79F868FFF7B5
:103F100067FF03461D462146B86800F02FF80346A8
:103F20001A46034B5A5500BF1037BD46B0BD00BFFF
:103F30000003002080B487B000AF78607B681B6806
:103F40007B6100233B610023FB60FB683F2B0CDCA3
:103F50007B691B881A463B6913443B61FB6801334C
:103F6000FB607B6906337B61EFE73B699B099BB292
:103F700018461C37BD4680BC7047000080B483B033
:103F800000AF786039607B68184A93421AD07B682A
:103F9000164A934223D87B68154A934204D07B6823
:103FA000144A934206D01AE03B68072B12DC3B68A8
:103FB000DBB215E03B68012B0EDC3B68DBB208335B
:103FC000DBB20DE03B68052B08DC3B68DBB20A3353
:103FD000DBB205E000BF02E000BF00E000BF10233D
:103FE00018460C37BD4680BC704700BF001001402A
:103FF00000080140000C014080B582B000AF78603D
:1040000039607B68012B10D13B684FF6FF729342F9
:104010000BD100210748FFF7CFFE01210648FFF72B
:10402000CBFE02210548FFF7C7FE00BF0837BD469B
:1040300080BD00BF84040020880400208C04002080
:1040400080B500AF4FF6FF710120FFF7D5FF80BDAF
:1040500080B483B000AF7860034A7B68136000BF10
:104060000C37BD4680BC70479004002080B500AF7F
:10407000044B00221A70044B00221A6000F038F83A
:1040800000BF80BDA8040020AC04002080B582B031
:1040900000AF40F243233B6000237B60074B1B686B
:1040A0003A4640F21141184600F088FD044B0222C6
:1040B0001A7000BF0837BD4680BD00BF90040020C5
:1040C000A804002080B582B000AF4FF49A733B6023
:1040D00000237B60054B1B683A4640F211411846AD
:1040E00000F06CFD00BF0837BD4680BD9004002085
:1040F00080B582B000AF34233B6000237B60064B69
:104100001B683A4640F21141184600F057FD00BFC7
:104110000837BD4680BD00BF9004002080B582B046
:1041200000AF786039607B68A3F21153152B57D824
:1041300001A252F823F000BF91410008E1410008BC
:10414000E1410008E1410008E1410008E1410008C7
:10415000E1410008E1410008E1410008E1410008B7
:10416000E1410008E1410008E1410008E1410008A7
:10417000E1410008E141000899410008B14100080F
:10418000E1410008E1410008E1410008C94100089F
:10419000386800F02FF823E03B681B681A0C3B6876
:1041A00004331B681B0413441A460F4B1A6017E0B4
:1041B0003B681B681A0C3B6804331B681B041344E0
:1041C0001A460A4B1A600BE03B681B681A0C3B68E6
:1041D00004331B681B0413441A46054B1A6000BFC6
:1041E00000BF0837BD4680BD94040020980400201D
:1041F0009C04002080B588B000AF7860434B1B78EA
:10420000002B31D1424B1B68072B27DC414B3B6114
:1042100000237B613B693E4A126813433B613C4B80
:104220001B68002B07D03A4B1B68012B03D0384B7F
:104230001B68052B03D13B6943F400733B61364B8C
:104240001B6807F1100240F21141184600F0B6FC5D
:104250002F4B1B6801332E4A136052E0FFF732FFE9
:104260002A4B04221A704CE0284B1B78022B29D1D0
:1042700040F24333BB600023FB607B68BB61BB69DA
:1042800007331B781A46BB6906331B781B021A4496
:10429000BB6905331B781B041A44BB6904331B78C4
:1042A0001B0613441A461D4B1A601B4B1B6807F173
:1042B000080240F21141184600F080FC134B032223
:1042C0001A701EE0114B1B78032B1AD17B68FB611F
:1042D000FB6907331B781A46FB6906331B781B0200
:1042E0001A44FB6905331B781B041A44FB69043329
:1042F0001B781B0613441A46094B1A60034B042211
:104300001A7000BF2037BD4680BD00BFA804002042
:10431000AC0400202040006490040020A004002091
:10432000A404002080B5ADF5016D00AF02F006FCDD
:104330000023C7F80C38D7F80C38DBB21846FEF764
:1043400011FA0346002B05D0D7F80C38FE2B01D804
:10435000012300E00023002B5BD0D7F80C38DBB240
:104360001846FEF7EBF9C7F8040807F50163A3F652
:104370000C02D7F80C38DB00134400229A70D7F8EF
:104380000C38DBB21846FEF77BFA0346194607F5F0
:104390000163A3F60C02D7F80C38DB0013440A467D
:1043A000DA70D7F804389B6999B207F50163A3F670
:1043B0000C03D7F80C2823F83210D7F80C38DBB2EE
:1043C0001846FEF723F90346194607F50163A3F6DD
:1043D0000C02D7F80C38DB00134459603A1DD7F8AB
:1043E0000C38DB0013441B68184602F0AFFB07F5DE
:1043F0000163A3F60C02D7F80C38DB0013445B68AA
:10440000184602F0A3FBD7F80C380133C7F80C3874
:1044100091E7D7F80C38FE2B3DD807F50163A3F6DA
:104420000C02D7F80C38DB001344FF229A7007F512
:104430000163A3F60C02D7F80C38DB001344FF220B
:10444000DA7007F50163A3F60C03D7F80C284FF6D2
:10445000FF7123F8321007F50163A3F60C02D7F8B9
:104460000C38DB0013444FF0FF325A604FF0FF303E
:1044700002F06CFB4FF0FF3002F068FB024607F5DC
:104480000163A3F60C03C3F8F827D7F80C380133FF
:10449000C7F80C38BDE707F50163A3F60C034FF02E
:1044A000FF32C3F8FC2702F00FFE194802F0D2F8E1
:1044B0000023C7F80C38D7F80C38B3F5007F1AD2B0
:1044C000D7F80C389B003A1D1344C7F80838D7F8C2
:1044D0000C3803F1007303F5FC439A00D7F8083851
:1044E0001B681946104602F009FED7F80C38013354
:1044F000C7F80C38DFE702F0F3FD07F50163A3F618
:104500000C03D3F8F837184607F50167BD4680BDA0
:1045100000F8010880B584B000AF244BBB6002F006
:104520000DFB4FF4FF71B86802F016FB7860BB68B2
:10453000D3F8F8377A689A4231D10023FB60FB68E0
:10454000FE2B2AD8BB68FA6833F832301846FEF7DB
:10455000D1F80346FB70FB78292B1AD0BB68FA68A8
:1045600033F83230002B14D0BA68FB68DB001344F8
:104570005B681A46FB7811461846FEF77DF8BA6864
:10458000FB68DB001344DA78FB7811461846FEF727
:1045900031F9FB680133FB60D1E7002301E04FF004
:1045A000FF3318461037BD4680BD00BF00F8010834
:1045B00080B582B000AF144B5B68002B03D1134869
:1045C000FFF7E6FB1CE000237B607B68032B17D81A
:1045D0000D4A7B68DB0013445B68002B10D00A4A4D
:1045E0007B68DB0013445A6807497B6811F8333055
:1045F0001946104600F00CF87B6801337B60E4E755
:104600000837BD4680BD00BFBC0000207C8000088C
:1046100080B582B000AF78600B46FB70FB780A4A29
:10462000DB0013441B791A46084B53F82220FB7811
:10463000054951F8333079680548FFF7A9FB00BFF9
:104640000837BD4680BD00BF98800008B00000203C
:104650008880000880B483B000AF7860396000BF04
:104660000C37BD4680BC704780B588B004AFF86099
:104670007A603B600B46FB72F968FA7AB7F91C3036
:104680000293BB6901933B6800937B68F86800F074
:10469000A5FE034618461037BD4680BD80B58AB0DA
:1046A00004AFF8607A603B600B46FB72FB6803F571
:1046B000FA71FA7AB7F9243002933B6A01933B68A6
:1046C00000937B68F86800F089FE7861F86800F074
:1046D00067FD7B6918461837BD4680BD80B483B03E
:1046E00000AF786039607B683A68C3F8E02400BFA7
:1046F0000C37BD4680BC704780B582B000AF786093
:1047000039607B68D3F8F834092B17DC7B68D3F861
:10471000F8343A6891B27A6803F51C735B0013446D
:104720000A469A807B68D3F8F8345A1C7B68C3F831
:10473000F824786800F034FD012300E000231846D7
:104740000837BD4680BD80B489B000AFF8607A609C
:104750003B600B46FB723B6B00221A700023FB7719
:10476000FB68BB61FB7F002B4CD1BB697B617A6925
:10477000BB69D31AB3F5E17F39DC7B691B884FF63F
:10478000FF72934233D07B6902333B617B69023312
:104790003A69D31A2A2B26DC3B6993F90530002BA2
:1047A00021DD3B691A88FB7A9BB29A4217D17B695B
:1047B0001B881A467B681A603B691B791A463B685E
:1047C0001A603B6993F905301A46BB6A1A603B6967
:1047D000B3F902301A46FB6A1A60012313E03B6901
:1047E00006333B61D2E77B6932337B61BFE73B6BCA
:1047F0001B78FB773B6B01221A70FB6803F5FA7399
:10480000BB61AFE7002318462437BD4680BC704724
:1048100080B584B000AF786002F090F902F054FCEB
:10482000022002F047FC1C4801F014FF7B68194687
:10483000786800F03AFF7B6803F5FA7319467868E8
:1048400000F033FF7A687D231349786800F096FE04
:104850007B6803F5FA727D231049786800F08EFEBC
:104860000346FB6007F10C0201230D49786800F054
:1048700085FE02F035FC7B681946786800F04EFF33
:104880007B6803F5FA731946786800F047FF00BFAC
:104890001037BD4680BD00BF00F00108F4F10108EB
:1048A000E8F3010880B588B000AF78607B68FB61F1
:1048B0007B68FA69D31AB3F5E17F57DCFB691B8883
:1048C0004FF6FF72934251D007F10C0300221A6099
:1048D0005A60FB690233BB61FB690233BA69D31AC0
:1048E0002A2B36DCBB6993F90530002B31DDBB691F
:1048F0001B88DBB21846FDF789FE0246BB69B3F997
:10490000023002FB03F35B117B61BB6993F9053055
:104910001A4601239340013B7A6913407B61BB69CE
:104920001B791F2B09D93B69BA691279203A796939
:1049300001FA02F213433B6107E0FB68BA6912799E
:1049400011467A698A401343FB60BB690633BB6139
:10495000C2E7FB691B88194607F10C031A46786801
:1049600000F02CF9FB693233FB61A1E700BF20376F
:10497000BD4680BD80B582B000AF78607B681946C7
:10498000786800F0A0FD7B6803F5FA731946786833
:1049900000F099FD786800F003FC00BF0837BD46C1
:1049A00080BD80B584B000AF78600B46FB707B683B
:1049B000FA781946786800F0B9FCF8607B6803F56E
:1049C000FA73FA781946786800F0B0FC0246FB6882
:1049D0001344FB60FB6818461037BD4680BD0000DD
:1049E00080B584B000AFF860B9601346FB71FB6816
:1049F0000022C3F8E823FB680022C3F8DC24FB682C
:104A0000494AC3F8E024FB680022C3F8F824FB6895
:104A1000BA68C3F8FC24F868FFF7ACFFF86800F048
:104A200049FCBB68414A934204D0BB68404A934268
:104A30002CD057E04FF40063022200213D4801F0E2
:104A400045FE4FF400613B4802F01FF94FF48053DC
:104A500002220321374801F039FE142002F0ACFB9A
:104A6000F021142002F0B6FB152002F0A5FBF02186
:104A7000152002F0AFFB132002F09EFBF021132063
:104A800002F0A8FB2C4AFB6813602BE04FF4805324
:104A900002220021294801F019FE4FF480512748D5
:104AA00002F0F3F84FF4005302220321234801F0EF
:104AB0000DFE402002F080FBF021402002F08AFB36
:104AC000412002F079FBF021412002F083FB3F20DE
:104AD00002F072FBF0213F2002F07CFB164AFB68DB
:104AE000536000BFFB68D3F8FC34184601F09CFB10
:104AF000FB791946F86800F023F8F86800F050FBDD
:104B0000FB68D3F8FC340221184601F087FCFB68EF
:104B1000D3F8FC341021184601F080FCFB681846DD
:104B20001037BD4680BD00BF5546000800640040F8
:104B30000068004000080140B0040020000C014063
:104B4000B0B58CB00AAF78600B46FB707B68D3F8C9
:104B5000FC44FA78184913465B0013449B000B444D
:104B60001968FA78144813465B0013449B00034409
:104B700004331868FA78104D13465B0013449B0009
:104B80002B4408331B6800220892002207920693E8
:104B900005900491002303930023029300230193C3
:104BA00001230093002301220021204601F048FB4D
:104BB00000BF0837BD46B0BD0081000880B586B093
:104BC00002AFF860B9607A60FB68D3F8FC34012169
:104BD000184601F027FCFB68D3F8FC047B680193BE
:104BE0000823009300230022B96801F020FC03464B
:104BF000002B06DAFB68D3F8DC34132B01DC01232D
:104C000000E00023002B31D0FB68D3F8DC24BB6824
:104C100098B2F96813465B0013449B000B4403F5FC
:104C20007B7302461A80FB68D3F8DC247B68196822
:104C3000F86813465B0013449B00034403F57C7340
:104C40001960FB68D3F8DC247B685968F868134660
:104C50005B0013449B00034403F57D731960FB68FC
:104C6000D3F8DC345A1CFB68C3F8DC24FB68D3F8A7
:104C7000DC34002B06DDFB68D3F8FC340121184638
:104C800001F0CCFB00BF1037BD4680BDF0B589B048
:104C900002AF786039600023FB750023BB757B6829
:104CA0003B61FB7D002B44D13B69FB60FA683B69AB
:104CB000D31AB3F5E17F33DCFB681B884FF6FF7234
:104CC00093422DD0FB680233BB60FB680233BA68A5
:104CD000D31A2A2B20DCBB6893F90530002B1BDD8F
:104CE000BB681B88D8B2FB681B881946BB681B7958
:104CF0001D46BB6893F905301E46BB68B3F9023008
:104D00001A46BB7D019300923C6833462A46A04771
:104D1000BB680633BB60D8E7FB683233FB60C5E78E
:104D2000BB7DFB750123BB757B6803F5FA733B61A3
:104D3000B7E700BF1C37BD46F0BD000080B483B0AC
:104D400000AF78607B68012B04DC054A7B6852F871
:104D5000233000E0002318460C37BD4680BC704766
:104D6000B004002080B590B006AF786039607B68F1
:104D7000D3F8FC043B68D9B207F11802002305936D
:104D800007F10C03049307F11503039307F11403D0
:104D9000029307F11603019307F1170300931346DB
:104DA000012201F0BBFB0346002B14BF01230023AB
:104DB000DBB2002B00F08680BB6940F201629342B7
:104DC00009D17B7D082B06D107F10C0319467868C1
:104DD00000F0CAF875E07B6803F5FA73BA69194602
:104DE000786800F0A4FBF861FB69002B61D0FB69D7
:104DF00002337B62FB6902337A6AD31A2A2B51DCB5
:104E00007B6A93F90530002B4CDD7B6A1B791F2BE5
:104E100010D93A697B6A1B79203B22FA03F37A6A3C
:104E200092F90520114601228A40013A13405B01A4
:104E30003B620DE0FB687A6A1279D3407A6A92F994
:104E40000520114601228A40013A13405B013B6272
:104E50007B6AB3F902301A463B6A02FB03F35B112B
:104E60003B627B6A1B88DBB21846FDF77BFC03467E
:104E7000002B14BF01230023DBB2002B07D07B6A79
:104E80001B88DBB2396A1846FDF78CFB06E07B6AAB
:104E90001B88DBB2396A1846FDF7EEFB7B6A0633E6
:104EA0007B62A7E701F0FEFD02467B68C3F8E823BA
:104EB0005DE77B68D3F8E034BA6907F10C0110466E
:104EC000984754E700BF2837BD4680BD80B584B001
:104ED00002AF78607B68D3F8DC34002B29DD7B6877
:104EE000D3F8FC047B68D3F8DC345A1E7968134687
:104EF0005B0013449B000B4403F57B731B8819462E
:104F00007B68D3F8DC345A1E13465B0013449B00C5
:104F100003F57A737A6813440833019308230093E6
:104F20000023002201F083FA0346002B01DB01235A
:104F300000E00023002B07D07B68D3F8DC345A1E36
:104F40007B68C3F8DC24C5E77B68D3F8DC34002B2E
:104F500006D17B68D3F8FC340121184601F062FACF
:104F600000BF0837BD4680BD80B58AB002AF78600B
:104F700039603B68BB61BB69B3F801309BB2B3F5E4
:104F8000005F40D1BB69DB78272B3CD8BB691B781D
:104F9000402B26D1BB69DA78BB695B68194610469D
:104FA000FDF700FB0346002B0CBF01230023DBB2FF
:104FB000002B03D0BB6923221A709FE0BB698022BB
:104FC0001A70BB69002242F030021A7100225A7135
:104FD000002242F009029A71002242F00602DA71C0
:104FE0008CE0BB691B78222B40F08880BB69DB78A2
:104FF0001846FDF70BFB03461A46BB695A60BB69AE
:1050000043221A707AE0BB69B3F801309BB2B3F562
:10501000405F62D3BB69B3F801309BB2B3F5904FE8
:105020005BD2BB69DB78272B57D8BB691B78402B39
:1050300066D1BB695B68DBB27B61BB695B681B0ADD
:10504000DBB23B61BB695B681B0CFB60BB69B3F8FF
:1050500001309BB203F48043002B12D0BB69D97896
:10506000BB69B3F801309BB2C3F30A02FB681BB201
:1050700001933B6900937B697868FFF70FFBF86148
:1050800011E0BB69D978BB69B3F801309BB2C3F3B7
:105090000A02FB681BB201933B6900937B69786845
:1050A000FFF7E2FAF861FB69002B03DBBB692322FF
:1050B0001A7025E0BB6980221A70BB69002242F099
:1050C00030021A7100225A71002242F009029A71CC
:1050D000002242F00602DA7112E0BB6980221A70E7
:1050E000BB6900221A7100225A71002242F00202AA
:1050F0009A71002242F00602DA7102E000BF00E07D
:1051000000BF3A6840F281517868FFF757FD00BF51
:105110002037BD4680BDF0B589B004AFF860B960F6
:105120007A603B607B681B681E463B681B885B019E
:1051300099B23B6802331B885B0198B23B68043329
:105140001B885B019CB23B6806331B885B019BB2EA
:105150007A68126802F0010201250295019200931B
:1051600023460246304601F049F9BB6800221A6026
:105170007B681B685A1C7B681A603B6806330022F8
:105180001A803A6804321B8813803B680233128805
:105190001A801A883B681A8000BF1437BD46F0BDDC
:1051A00080B588B000AF786040F201633B82002395
:1051B0007B820023BB820023FB820123FB607B6890
:1051C000D3F8FC34394A934205D0394B1B681B0A8B
:1051D00003F03F0300E00023BB600023FB617B681A
:1051E000D3F8F834FA699A4221DAFA687968FB69E7
:1051F00003F51C735B000B449988530007F12002F0
:1052000013440A4623F8102CFB680133FB60FB684B
:10521000042B08D107F1100307F1080207F10C0174
:105220007868FFF778FFFB690133FB61D7E77B689C
:1052300003F5FA73BB617B6803F5FA73BA69D31A95
:10524000B3F5E17F21DCBB691B884FF6FF72934207
:105250001BD0FB68BA6912885B0007F120010B4480
:1052600023F8102CFB680133FB60FB68042B08D18A
:1052700007F1100307F1080207F10C017868FFF746
:105280004AFFBB693233BB61D5E7FB68002B08DD01
:1052900007F1100307F1080207F10C017868FFF726
:1052A0003AFF00BF2037BD4680BD00BF006400400C
:1052B000006A004080B586B000AF7860184B7B6113
:1052C000184B1B683B6101F039FCFA21786901F049
:1052D00043FCF8603A69FB689A421BD17B687D22E7
:1052E0000F491846FEF745FA7B6803F5FA737D22ED
:1052F0000D491846FEF73DFA7B681946786800F0BC
:105300000DFA7B6803F5FA731946786800F006FA1F
:10531000012300E0002318461837BD4680BD00BFBA
:1053200000F00108E8F30108F4F1010880B5ADF5DB
:10533000027D00AF07F50273A3F5FE73186007F551
:105340000273A3F50073196007F50273A3F201233A
:105350001A7007F1100207F50273A3F5FE731146E8
:10536000186800F0B0F807F50273A3F201231B7868
:1053700007F1100207F50271A1F5007107F502703F
:10538000A0F5FE700968006800F023F9C7F8040270
:1053900007F50273A3F5007207F50273A3F5FE7318
:1053A0001168186800F08FF807F50273A3F2012363
:1053B0001B7807F50272A2F5007207F1100107F5DC
:1053C0000270A0F5FE701268006800F002F9D7F8CC
:1053D0000432184607F50277BD4680BD80B588B017
:1053E00000AFF860B9603B601346FB713B68B3F5F2
:1053F000006F02DB4FF0FF3361E0BB6A3F2B02DD41
:105400006FF001035BE0FB6A202B02DD6FF002030B
:1054100055E03A68B968F86800F089F8F861FB6906
:10542000002B10D14FF6FF72B968F86800F07FF8D2
:10543000F861FB69002B02D16FF003033FE03B688A
:105440009AB2FB691A80FB690233BB61BB6993F9AD
:105450000530002B03DDBB690633BB61F6E7BB6992
:1054600093F90530B3F1FF3F02D16FF0040326E05A
:10547000FB799AB2BB691A80BB693A8E5A80BB6AC3
:10548000DAB2BB691A71FB6A5AB2BB695A7100235E
:105490007B61BB683B613A69BB68D31AB3F5E17FB6
:1054A0000CDC3B691B884FF6FF72934206D07B6988
:1054B00001337B613B6932333B61ECE77B69184622
:1054C0002037BD4680BD80B485B000AF78603960BC
:1054D0000023FB60FB68092B24DCFB68322202FB03
:1054E00003F33A6813444FF6FF721A800023BB603F
:1054F000BB68072B12DCFB68322202FB03F33A681D
:10550000D118BA6813465B0013445B000B440733A1
:1055100000221A70BB680133BB60E9E7FB68013306
:10552000FB60D7E700BF1437BD4680BC704780B42E
:1055300087B000AFF860B9607A6000237B617B6957
:10554000092B15DC7B69322202FB03F3BA68134492
:105550001B881A467B68934206D17B69322202FB84
:1055600003F3BA68134404E07B6901337B61E6E727
:10557000002318461C37BD4680BC704780B586B0F6
:1055800000AFF860B9607A603B6000237B61002364
:105590003B613A693B689A4216DA7B681B68184699
:1055A00001F0D4FA78613B699A00BB681A447B68C1
:1055B0001B681946104601F0A1FD7B6804337B602F
:1055C0003B6901333B61E4E77B6918461837BD4608
:1055D00080BD80B48BB000AFF860B9607A60FB70BA
:1055E00000237B6200233B62BB68FB61FA69BB68F6
:1055F000D31AB3F5E17F52DCFB691B884FF6FF72CB
:1056000093424CD00123FB7600237B61FB6902337C
:105610003B61FB6902333A69D31A2A2B29DC3B69C7
:1056200093F90530002B24DD3B691A88FB789BB287
:105630009A4217D00023FB767B6A322202FB03F3E7
:105640007A68D1187A6913465B0013445B000B44F7
:105650003A6902331168196092889A807B69013334
:105660007B6102E03B6A01333B623B6906333B618D
:10567000CFE7FB7E83F00103DBB2002B0BD07B6A0C
:10568000322202FB03F37A681344FA6912881A8003
:105690007B6A01337B62FB693233FB61A6E73B6ABD
:1056A00018462C37BD4680BC704780B586B000AF29
:1056B000786039603B687B617A693B68D31AB3F5DF
:1056C000E17F27DC7B691B884FF6FF72934221D074
:1056D0007B6902333B617B6902333A69D31A2A2B17
:1056E00014DC3B6993F90530002B0FDD3B691B8807
:1056F000DBB21846FDF722F8F860FB689B699AB2A6
:105700003B691A803B6906333B61E4E77B693233CE
:105710007B61D1E700BF1837BD4680BD80B586B03C
:1057200000AF786039603B687B617A693B68D31A67
:10573000B3F5E17F26DC7B691B884FF6FF7293424D
:1057400020D07B6902333B617B6902333A69D31A0B
:105750002A2B13DC3B6993F90530002B0EDD3B69E6
:105760001B881846FCF7C6FF0346FB73FB7B9AB207
:105770003B691A803B6906333B61E5E77B6932335D
:105780007B61D2E700BF1837BD4680BD80B500AF52
:105790000020FFF7D3FA034600211846FFF7E2FA8C
:1057A00000BF80BD80B500AF0020FFF7C7FA0346F9
:1057B00001211846FFF7D6FA00BF80BD80B500AFC3
:1057C0000020FFF7BBFA03461846FFF77FFB00BF38
:1057D00080BD80B500AF0120FFF7B0FA034600217D
:1057E0001846FFF7BFFA00BF80BD80B500AF0120AB
:1057F000FFF7A4FA034601211846FFF7B3FA00BFEA
:1058000080BD80B500AF0120FFF798FA0346184627
:10581000FFF75CFB00BF80BD80B500AF0C211148D5
:1058200001F0EFFB0521104801F007FA04210E48B2
:1058300001F003FA0D4B1A4605210B4801F00FFA4F
:105840004FF400720521084801F019FA05210648B5
:1058500001F0EAF94FF40071054801F01EFA00BFAB
:1058600080BD00BF0038014000000240B8040020A5
:10587000000C014080B584B000AF7860396005212C
:10588000124801F0F5F90346C3F50073FB81FB896B
:105890003A689342A8BF1346BB603B68002B10DDFB
:1058A000FB89002B0DD03B68013B3B60FB89013B32
:1058B000FB81FA893B6879680B4405498A5C1A7058
:1058C000EBE7BB6818461037BD4680BD00000240BC
:1058D000B804002080B582B000AF7860396008213C
:1058E0001D4801F08EFB05211C4801F0A6F904219A
:1058F0001A4801F0A2F93B689BB21A4604211748E6
:1059000001F0BDF9164B1A460421144801F0A7F91D
:1059100002220421114801F03EF93B68002B0CDD06
:105920003B68013B7A681A443B68013B11780C4A9A
:10593000D1543B68013B3B60EFE70A4B1B68094AC7
:1059400043F0010313600421044801F06DF900BF26
:105950000837BD4680BD00BF00380140000002404E
:10596000B80400200C38014080B400AF064B1B681F
:1059700003F00403002B14BF01230023DBB21846FD
:10598000BD4680BC704700BF0C38014080B500AFF9
:10599000044B1B68034A23F040031360FFF73CFFEE
:1059A00000BF80BD0038014080B584B000AF034621
:1059B0003960FB80FB88184600F086F80346BB730D
:1059C000FB88184600F05DF803467B730023FB73E9
:1059D000BB7B002B02D17B7B002B22D0BB7B002B1F
:1059E0000ED07B7B012B0BD1BB7B013B012202FA4A
:1059F00003F31AB2B7F9063053401BB2FB8010E034
:105A0000BB7B002B05D17B7B012B02D1FF23FB73DA
:105A100007E0BB7B002B04D07B7B002B01D1FF2355
:105A2000FB73FB88184600F08AF803461A463B6869
:105A30001A8097F90F3018461037BD4680BD80B5E3
:105A400084B000AF0346FB80FB88184600F0ADF839
:105A50000346FB81FB89184600F0DDF80346FB8115
:105A6000FB89184600F00DF80346DB031AB2B7F9BC
:105A70000E3013431BB2FB81FB8918461037BD461D
:105A800080BD80B485B000AF0346FB800023FB736C
:105A90000023BB730FE0FA88BB7B42FA03F35BB2CF
:105AA00003F001035AB297F90F3053405BB2FB7316
:105AB000BB7B0133BB73BB7B0F2BECD9FB7B184645
:105AC0001437BD4680BC704780B485B000AF034634
:105AD000FB800023FB730023BB7327E000237B7351
:105AE0001EE07B7B5A1CBB7B012101FA03F31340B0
:105AF000002B12DDFA887B7B1A41BB7B02FA03F391
:105B00005AB2BB7B012101FA03F35BB213405AB2D4
:105B100097F90F3053405BB2FB737B7B01337B7390
:105B20007B7B0E2BDDD9BB7B0133BB73BB7B032B94
:105B3000D4D9FB7B18461437BD4680BC704780B46F
:105B400085B000AF0346FB800023FB8100237B73FD
:105B50000A233B7320E07B7B002B1AD07B7B012B3D
:105B600017D07B7B032B14D07B7B072B11D0FA88BB
:105B70007B7B42FA03F303F001023B7B02FA03F35F
:105B80001AB2B7F90E3013431BB2FB813B7B013BCA
:105B90003B737B7B01337B737B7B0E2BDBD9FB89D8
:105BA00018461437BD4680BC704780B485B000AF3E
:105BB0000346FB800023FB8100237B730A233B7396
:105BC00020E07B7B002B1AD07B7B012B17D07B7BCB
:105BD000032B14D07B7B072B11D0FA883B7B42FA36
:105BE00003F303F001027B7B02FA03F31AB2B7F965
:105BF0000E3013431BB2FB813B7B013B3B737B7B32
:105C000001337B737B7B0E2BDBD9FB891846143762
:105C1000BD4680BC704780B485B000AF0346FB80B2
:105C20000023FB7327E00223BB731EE0BB7B5A1CDF
:105C3000FB7B012101FA03F31340002B12DDFA88EC
:105C4000BB7B42FA03F303F00102FB7B012101FA63
:105C500003F3013B02FA03F31AB2B7F906305340DB
:105C60001BB2FB80BB7B0133BB73BB7B0E2BDDD92F
:105C7000FB7B0133FB73FB7B032BD4D9FB881846DA
:105C80001437BD4680BC704780B582B000AF054B6D
:105C90001B687B603B1D184600F0DEF900BF08372B
:105CA000BD4680BD3081000880B582B000AF074B93
:105CB0001B687B60064B4FF0FF321A603B1D184695
:105CC00000F0CAF900BF0837BD4680BD3481000826
:105CD000DC00002080B584B000AF174B1B68002BA0
:105CE00024DABB1D02211846FFF7C4FDF860FB68EB
:105CF000022B02D04FF0FF331AE0FB8807F10802B5
:105D000011461846FFF750FE0346002B0CBF012337
:105D10000023DBB2002B09D03B7A802B02D94FF055
:105D2000FF3305E03B7A013B034A1360024B1B68DB
:105D300018461037BD4680BDDC00002080B584B019
:105D400000AF78600023FB607B68DBB23B7307F138
:105D50000C03184600F080F900BF1037BD4680BD27
:105D600080B58AB000AF786007F108030D211846AE
:105D7000FFF780FD38627B68013B9B00FB613B6A5B
:105D80000D2B01D000232FE007F108030B2118464B
:105D900000F077F9B861B7F813309BB21A46BB69C7
:105DA000934201D000231FE000237B627B6A032B18
:105DB00011DC7A6AFB691A447B6A5B0007F12801EF
:105DC0000B4433F81F3C99B2094B23F812107B6A3D
:105DD00001337B62EAE7B7F811309AB27B68013B86
:105DE00051B2044AD154012318462837BD4680BD1C
:105DF000B8060020B808002080B584B000AF7860F5
:105E00000023FB6003237B737B68DBB23B7307F1EA
:105E10000C03184600F020F900BF1037BD4680BDC6
:105E200080B588B000AF786007F10C030C211846EC
:105E3000FFF720FDF861FB690C2B01D000231DE06A
:105E400007F10C030A21184600F01BF9B861FB8A20
:105E50001A46BB69934201D000230FE07B685A1EAB
:105E6000084913465B0013445B000B441A4607F1D4
:105E70000C03186810609B88938001231846203714
:105E8000BD4680BDF808002080B586B000AF7860C0
:105E900039607B68013B9B003B6102237B737B681D
:105EA000DBB23B730023FB8100237B617B69032B07
:105EB0001BDCFB891AB279693B690B44174931F83D
:105EC000133019463B688B42B4BF01230023DBB279
:105ED00019467B6901FA03F31BB213431BB29BB251
:105EE000FB817B6901337B61E0E707F10C031B88D1
:105EF0001846FFF7A4FD03463B81FB891846FFF7D0
:105F00009EFD03467B8107F1080304211846FFF735
:105F1000E1FC00BF1837BD4680BD00BFB8060020B9
:105F200080B400AF024B1846BD4680BC704700BF2E
:105F3000B806002080B400AF024B1846BD4680BCB6
:105F4000704700BFB808002080B400AF024B18466D
:105F5000BD4680BC704700BFF808002080B582B005
:105F600000AF074B1B687B60064B00221A703B1D7D
:105F7000184600F071F800BF0837BD4680BD00BF6D
:105F800038810008780A002080B584B000AFFFF7A0
:105F9000EBFC0346002B05D02D4B1B78002B01D0CA
:105FA000012300E00023002B0FD00023FB71FB1D19
:105FB00001211846FFF75EFCFB79002B05D0244B2E
:105FC0001B78013BDAB2224B1A70214B1B78372B1E
:105FD00006D8FFF7C9FC0346002B01D0012300E0DF
:105FE0000023002B2ED01A4B1B785B015B00194A53
:105FF0001344BB600023FB60FB681F2B0FDCFB68B6
:106000005B00BA6813441988114AFB685B001344AB
:106010000A46A3F80120FB680133FB60ECE741214D
:106020000B4800F02EF803469AB2094BA3F8412022
:1060300043210748FFF74EFC054B1B780133DAB2CA
:10604000034B1A70024B1B7818461037BD4680BDB3
:10605000780A00203C81000880B584B000AF7860E9
:106060007B681B881846FFF7EAFC0346FB8107F1B3
:106070000E0302211846FFF72DFC00BF1037BD4666
:1060800080BD80B485B000AF786039600023BB600C
:106090003B68002B23DD7B685A1C7A601B781B024F
:1060A000BA685340BB600023FB60FB68072B12DC1F
:1060B000BB685B00BB60BB6803F48033002B06D079
:1060C000BB6883F4815383F001039BB2BB60FB6820
:1060D0000133FB60E9E73B68013B3B60D8E7BB6805
:1060E00018461437BD4680BC70478368DB075EBF27
:1060F000836843F00103836070478368DB0742BF16
:10610000836843F0010383607047836800F10802ED
:1061100043F00803836013681B07FCD4704783684F
:1061200043F00403836070478068C0F380007047C9
:1061300008B50246FFF7F3FF1046FFF7F5FF00280A
:10614000FAD108BD0022134610B501FA02F4033259
:106150001E2A43EA0403F8D10022036101FA02F483
:106160000332182A43EA0403F8D1C36010BD8368E0
:1061700023F0010383607047436843F480734360F6
:106180007047836823F4006383607047836843F03B
:106190000203836070471029F0B50CD80026012354
:1061A00037463546DCB2A14206D2013945EA0155EF
:1061B000C56207634663F0BD062C15D892F800C08F
:1061C00003EB830EAEF1050E0CFA0EFC46EA0C064C
:1061D0000D3C052C15D8147803EB830CACF1410C65
:1061E00004FA0CF425430CE0A4F1070CBCF1050FF4
:1061F000EED8147803EB830CACF1230C04FA0CF406
:10620000274301330132CDE7836800F1080243F4EC
:106210008003836013685B02FCD47047836843F497
:106220008073836070470000044B98420CBF40F2BB
:10623000192040F21A2000F02ABF00BF006400407D
:106240002DE9F3410468884624F0020404600468E0
:10625000964644F0010404604FF6FF749DF820C098
:106260009DF824109DF828209DF83C609DF8407012
:106270000194019C051D013C019414B14468E4079C
:10628000F7D52C68E4076ED50024C4610468B8F122
:10629000000F4FD044F0800404600468BEF1000F8A
:1062A0004BD044F040040460002B49D0036843F015
:1062B000200303600368BCF1000F45D043F01003D6
:1062C00003600368002942D043F0080303600368B9
:1062D000002A3FD043F004030360C369002F3CD081
:1062E00043F00043C361C369002E39D043F08043BB
:1062F000C3610E9B0D99013BC3F309030B430C993A
:10630000C2690B430B990B431343C361036823F02A
:10631000010303604FF6FF730193019B013B01935F
:1063200013B12B68DB07F8D4286800F0010002B035
:10633000BDE8F08124F08004AEE724F04004B2E729
:10634000036823F02003B4E723F01003B8E723F039
:106350000803BBE723F00403BEE723F00043C1E7D3
:1063600023F08043C4E70120E1E70000F0B50124F9
:106370001E4D96461A462B689DF81C7043F001038B
:106380002B60EB69844023EA04031C352B60E64351
:10639000174B09B319682143196016490B68BEF100
:1063A000000F1CD0234300F1006000F6C8400B60D2
:1063B000C000059B0260069A43600F4B8AB11A68C1
:1063C00022431A6017B12B681C432C60074A1368DC
:1063D00023F001031360F0BD19683140DCE733405E
:1063E000E1E71A6816401E60ECE700BF0066004057
:1063F0000C660040046600401466004030B4BDF8EE
:1064000008409DF8105044EA0344049542EA0143D1
:106410000294012230BC0021FFF7A8BF43690B435F
:1064200043617047436923EA0103436170472DE9E3
:10643000F041804680689DF818E04501079E2AD407
:10644000D8F8080004012AD4D8F80800C00050D5B4
:106450004FF4D075022005EB080422B3C90041F0C7
:10646000040145F808101BB1236843F002032360C0
:10647000636823F00F03636062680EF00F03134339
:1064800063600EF1FF33072B2AD8DFE803F02623E1
:10649000201B1815120E4FF4C0750020DBE74FF4D7
:1064A000C8750120D7E74905DBE70027F37963F3D7
:1064B0001F67B37963F31747737963F30F27337952
:1064C00063F307074FF0000CF37863F31F6CB378A6
:1064D00063F3174C737863F30F2C337863F3070C73
:1064E000C4F808C0E760236843F001032360BDE8F7
:1064F000F0814FF0FF30FAE721B9C36843F0200381
:10650000C3607047036943F020030361704719B902
:10651000C06800F0030070470069FAE72DE9F3470F
:10652000DDF828A00446DDE90E568846FFF7EFFFA8
:106530004FF4E07181464FF4D870CDE9000102A913
:1065400001EB880151F8081C6058671810F004002E
:1065500015BF01208AF800008AF80000605816BFB5
:106560006058400DC008186061580B9BC1F3400192
:10657000197079680C9B090A197079680D9B01F0F4
:106580000F01197016B17B681B0C3380BE68FB6865
:10659000C6F307216970C6F30741A970C3F3072149
:1065A0002E702B71C6F307666971C3F30741C3F3FD
:1065B0000763EE70A971EB711AB141462046FFF7EF
:1065C0009BFF484602B0BDE8F0870000064B186804
:1065D000064B1B88B3F5007F82BF054B1B68184331
:1065E00000F03500704700BF0C200240E0F7FF1FAD
:1065F0004C20024038B504460D4600F079FD114BA1
:106600001B88B3F5007F18D90F4B9C4215D90F4A50
:10661000136843F001031360258000F069FD094B06
:106620001B88B3F5007F0AD9074B9C4207D9074A5C
:10663000136823F00103136038BD054AE8E7044AF4
:10664000F6E700BFE0F7FF1FFFFF070850200240FA
:106650001020024010B5044600F04AFD154B1B887F
:10666000B3F5007F1DD9144B9C421AD9134B1A68FD
:1066700042F002021A60124A14601A6842F04002A4
:106680001A6000F035FD0B4B1B88B3F5007F0FD966
:10669000094B9C420CD9094A136823F0020313608A
:1066A00010BD084B1A6842F002021A60064AE3E77E
:1066B000044AF1E7E0F7FF1FFFFF07085020024000
:1066C0005420024010200240142002402DE9F041E5
:1066D0004FF00F0C00250768466843FA05F4E407FD
:1066E0001CD5072D94BFBE46B646ACB24FEA840413
:1066F0008ABF203CA4B2A4B20CFA04F82EEA08081F
:1067000004F1020E02FA0EFE01FA04F44EEA040449
:1067100044EA0804072D94BF274626460135102D6C
:10672000DBD107604660BDE8F0810000034A1368D2
:1067300023F0E0630B430343136070470400014000
:10674000024A136843F080731360704700100240E0
:10675000062822D8DFE800F004090E13181D1F00D8
:106760000F4B1868C0F3406070470D4B1868C0F3BA
:10677000C06070470A4B1868C0F340707047084B00
:106780001868C0F340407047054B1868C0F34000DC
:106790007047044BF9E7044BF7E70020704700BF50
:1067A000001002402010024024100240024608B5AA
:1067B0001046FFF7CDFF0028FAD008BD06280CD8F8
:1067C000DFE800F004060C11161B1D00FFF7B8BF30
:1067D0000C4A136843F0806313607047094A1368DA
:1067E00043F08053F8E7074A136843F48033F3E734
:1067F000044A136843F00103EEE7034AF9E7034A4A
:10680000F7E700BF001002402010024024100240B1
:10681000034A136823F0030303431360704700BF68
:1068200004100240034A136823F4701343EA8043C0
:106830001360704704100240034A136823F4803346
:1068400043EA00431360704704100240034A136890
:1068500023F4003343EA40431360704704100240BE
:10686000024B186800F40040704700BF201002403F
:10687000024A136843F4004313607047201002403B
:1068800006283DD8DFE800F03737372637041500F3
:106890001C4B1A6842F001021A601A689007FCD576
:1068A0001A6822F440721A601A6842F480721A6000
:1068B0007047154B1A6842F001021A601A68910776
:1068C000FCD5104B1A6822F440721A601A6842F420
:1068D0000072ECE70D4B1A6842F480321A601A68B5
:1068E0009203FCD5074B1A6822F440721A601A68AA
:1068F00042F44072DBE7034A136823F440731360E9
:10690000704700BF201002402410024000100240D7
:10691000034A136823F4404343EA8033136070470B
:1069200004100240034A136823F4605343EAC0236F
:106930001360704704100240034A136823F4E063B5
:1069400043EA00231360704704100240034A1368AF
:1069500023F0F00343EA0013136070470410024071
:1069600008B50420FFF72AFF0420FFF71FFF0020CF
:10697000FFF74EFF0320FFF721FF0320FFF716FF6D
:106980000120FFF745FF0020FFF7E0FF0320FFF79E
:10699000BFFF0420FFF7D0FF0020FFF7C3FF022056
:1069A00000F088FB0720FFF73DFF0120FFF744FFC1
:1069B0000020FFF74BFFFFF7C3FE0020FFF7F6FEB6
:1069C0000220FFF725FF044B044A05491360054ADE
:1069D0001160054A136008BD00A24A04E0000020CF
:1069E00000512502E4000020E8000020044B1A6852
:1069F0009206FCD51A6842F010021A60704700BF78
:106A000004280040044B1A6822F010021A601A6829
:106A10009206FCD5704700BF0428004038B50446F4
:106A200000254FF4677000F024FB40F29B3000F02B
:106A300020FB00F043F92046FFF722FF0D4C0E4BE0
:106A40001D602560FFF714FFFFF7D0FF0B4B0C4ACA
:106A50001D605D601D615D614FF6FF7313605360E3
:106A6000FFF7D0FF236823F00803236023681B0788
:106A7000FCD538BD0428004000280040082800400C
:106A80002028004008B5FFF7B1FF054B82B2C0F3E4
:106A900003401A6043F8040CBDE80840FFF7B2BF9A
:106AA0000C280040034B186804331B6843EA00407D
:106AB000704700BF1828004008B5FFF797FF044B48
:106AC000020C80B21A605860BDE80840FFF79ABF18
:106AD0001828004008B54FF4677000F0CAFA40F279
