:020000040800F2
:10100000005000202580000823800008218000086F
:1010100021800008218000082180000800000000D5
:101020000000000000000000000000002380000815
:1010300023800008000000002380000823800008AF
:1010400021800008218000082180000821800008FC
:1010500021800008218000082180000821800008EC
:1010600021800008218000082180000821800008DC
:1010700021800008218000082180000821800008CC
:101080002180000821800008218000088166000876
:101090005166000869660008218000082180000868
:1010A000218000082180000821800008218000089C
:1010B00021800008218000089D2000082180000870
:1010C000218000082180000821800008218000087C
:1010D0002180000851680008218000082180000854
:1010E000218000082180000821800008218000085C
:1010F000218000082180000821800008218000084C
:10110000218000082180000821800008218000083B
:10111000218000082180000821800008218000082B
:10112000218000082180000821800008218000081B
:10113000218000082180000821800008C76600087F
:1011400097660008AF66000821800008218000082B
:1011500080B582B000AF78607B681A687B689B8836
:101160001946104606F01CFD0346002B14BF012350
:101170000023DBB218460837BD4680BD80B582B07B
:1011800000AF78607B681A687B689B8819461046B8
:1011900006F001FD00BF0837BD4680BD80B582B0B6
:1011A00000AF78607B681A687B689B881946104698
:1011B00006F0F3FC00BF0837BD4680BD80B582B0A5
:1011C00000AF78607B681A687B689B881946104678
:1011D00006F0E9FC00BF0837BD4680BD80B483B08F
:1011E00000AF78603960054A7B681360044A3B6849
:1011F000136000BF0C37BD4680BC7047A4030020BD
:10120000A803002080B483B000AF78603960054A3D
:101210007B681360044A3B68136000BF0C37BD460F
:1012200080BC7047AC030020B003002080B483B0C2
:1012300000AF78603960054A7B681360044A3B68F8
:10124000136000BF0C37BD4680BC70479C03002074
:10125000A003002080B400AF024B1B681846BD46B7
:1012600080BC7047B403002080B483B000AF7860C6
:10127000034A7B68136000BF0C37BD4680BC7047D3
:10128000B403002080B400AF054B1B78042B0CBFC7
:1012900001230023DBB21846BD4680BC704700BF67
:1012A0007C03002080B400AF024B1B681846BD468B
:1012B00080BC70476803002080B400AF024B1B68FD
:1012C0001846BD4680BC70477403002080B400AF50
:1012D000024B1B681846BD4680BC7047780300204F
:1012E00090B589B000AF182001F03CFB0346FB77B6
:1012F00006F062FCB948FFF761FFB94B1B6818465E
:1013000001F0BEFA03465B01BB61BB69B54A82FBD3
:1013100003129210DB17D31A1946332001F048FB51
:10132000FFF7B0FF0346002B1BD003F075FBFFF760
:10133000C3FF03461946242001F026FBFFF7C6FF32
:1013400003461946252001F01FFBFFF7B5FF0346B2
:101350005C01FFF7BBFF03465B0119462046FFF720
:1013600065FFA148FFF7F4FE034619462D2001F062
:101370000BFB9E48FFF7ECFE034619462E2001F0BA
:1013800003FB06F015FB03461946302001F0FCFA7A
:101390009548FFF7DDFE0346002B05D04FF0FF31E7
:1013A0002F2001F0F1FA1DE0914B1C6806F000FBC4
:1013B0000346E31A03F5E1537B618E4B1B78002B48
:1013C00004D006F0F5FA0346894A136079692F20A4
:1013D00001F0DAFA7B69002B04D103F085FD864821
:1013E000FFF7DCFE192001F0BDFA0346002B07DDF4
:1013F000FB7F062B02D0FB7F082B01D1012300E0ED
:101400000023002B64D0272001F09CFA02467B4B7E
:101410001B68DB011A44794B1B68D31ADB11774A2E
:101420001360262001F08EFA0246754B1B68DB0123
:101430001A44734B1B68D31ADB11714A13600220E4
:1014400001F080FA02466D4B1B68D31A3B613B6981
:10145000002B00DA03339B10FB600E2001F072FAC0
:101460000246FB68934204DD0E2001F06BFA03464E
:1014700000E0FB68FB60FB6823EAE373FB60F9684C
:10148000222001F095FA5E4B1C68042001F05AFA04
:101490000346E31A3B613B69002B00DA03339B10E0
:1014A000FB600F2001F04EFA0246FB68934204DD18
:1014B0000F2001F047FA034600E0FB68FB60FB6881
:1014C00023EAE373FB60F968232001F071FA07E077
:1014D0000021232001F06CFA0021222001F068FA9B
:1014E0004148FFF735FE03461A46424B1A70172053
:1014F00001F038FA0346052B47D801A252F823F031
:1015000019150008271500083515000843150008AF
:1015100051150008591500083A48FFF72FFE3A48C0
:10152000FFF72CFE31E03748FFF728FE3648FFF77B
:1015300035FE2AE03348FFF731FE3348FFF71EFE41
:1015400023E03048FFF72AFE2F48FFF727FE1CE074
:101550002948FFF723FE18E0282001F003FA03468C
:101560009BB2184603F076FCB860B9681C2001F005
:101570000BFAB9681B2001F007FABB685B0118463B
:10158000FFF772FE03F0B0FC00BF1748FFF7E0FD65
:101590000346002B03D00021172001F0F5F9162097
:1015A00001F0E0F90346012B0CBF01230023DBB25D
:1015B000002B03D00D48FFF7E1FDAFE0162001F04E
:1015C000D1F90346002B0CBF01230023DBB2002B13
:1015D0001CD00648FFF7E2FDA0E000BFA4010020F8
:1015E00024010020676666669C010020B40100208B
:1015F0003401002000000020CC0100203C0100202C
:1016000040010020BC010020C40100200A2001F09C
:10161000A9F90346012B0CBF01230023DBB2002BE9
:1016200025D01D2001F08EF904460C2001F08AF926
:1016300003469C42B4BF01230023DBB2002B03D03E
:101640004048FFF7ABFD69E01D2001F07BF904463F
:101650000B2001F077F903469C42CCBF0123002305
:10166000DBB2002B5AD03748FFF788FD56E0FB7FEE
:10167000062B02D0FB7F082B4BD1272001F072F9FB
:101680007860262001F06EF93860022001F06AF9D6
:1016900002467B6893420CDC042001F063F90246A9
:1016A0003B68934205DB192001F05CF90346002BEF
:1016B00001D1012300E00023002B0DD0224B1B6839
:1016C000002B03D11F48FFF769FD26E01E4B1B6866
:1016D000013B1D4A136020E0032001F043F902465C
:1016E0007B68934202DA7B68002B06DC052001F060
:1016F00039F902463B68934201DD012300E00023F3
:10170000002B0AD00F48FFF739FD0F4B64221A60F7
:1017100003E00C48FFF742FD00E000BF132001F09A
:1017200021F90346002B0CBF01230023DBB2002B61
:1017300004D0064B1B68184603F024FF00BF243773
:10174000BD4690BDB40100203801002028010020D2
:1017500090B591B000AF944B1B6819461A2001F068
:1017600013F9924B1B78062B40F06E818E4B1B6851
:10177000184605F057FA034619468D4B1B781A4652
:101780000B461340002B14BF01230023DAB2884B11
:101790001A70854B1A68874B1B689A4205DA824B90
:1017A0001B680133804A136062E17F4B01221A609B
:1017B0003B1D07F1080207F10C0107F1100003F0CF
:1017C00085FA7B4B1B7883F00103DBB2002B0CD036
:1017D000794B1B68002B04DD774B1B68013B764A75
:1017E0001360734B01221A7002E0734B0A221A60D5
:1017F000714B1A6813469B0013445B00194619206D
:1018000001F0C2F87B68FB63202001F09BF80246E0
:10181000FB6B1344FB63F96B1F2001F0C9F82C200C
:1018200001F090F80346002BCCBF01230023DBB26C
:10183000002B27D02C2001F095F80246BB681344FA
:10184000BB60BB68DA0F13445B10BB602A2001F059
:1018500089F802463B699A4204DC2A2001F082F8AA
:10186000034600E03B693B612B2001F07BF8024618
:10187000FB689A4204DB2B2001F074F8034600E079
:10188000FB68FB604D4B1B684D4A934240F2A080C1
:10189000BB689BB2184603F0DDFA3863242001F0E0
:1018A00051F8F862252001F04DF8B862396B1C2020
:1018B00001F06AF8396B1B2001F066F80021242042
:1018C00001F076F80021252001F072F83B6B5B01F6
:1018D0001846FFF7C9FC3B4B1B680133394A1360BC
:1018E000384B1B680A2B40F39880374B1B68002B42
:1018F00003DA354A3B6B13608FE0334B1B683A6B5E
:101900009A4225DD304B1B683A6BD31A322B1FDD10
:10191000FA6ABB6AD31A7B622B4A3B6B13607B6A01
:10192000642203FB02F2284B1B68396BCB1A92FB33
:10193000F3F33B623B6A254A82FB03121A44D2123C
:10194000DB17D31A3B62396A062001F031F864E0F4
:101950001D4B1B683A6B9A425FDA1B4B1A683B6B54
:10196000D31A322B59DDBA6AFB6AD31AFB61164AC5
:101970003B6B1360FB69642203FB02F2124B196894
:101980003B6BCB1A92FBF3F3BB61BB690F4A82FB43
:1019900003121A44D212DB17D31ABB61B9690620AD
:1019A00001F006F839E000BF0C00002049010020DA
:1019B0001400002044010020080000203001002015
:1019C00080EE36004C01002010000020C5B3A2912B
:1019D0001C2000F0B7FFB863242000F0B3FF0446DA
:1019E000252000F0AFFF0346E31A7B637B6BAA4A16
:1019F00082FB0312D210DB17D31A7B637B6B5C0173
:101A0000062000F09FFF034694FBF3F3BA6B1344E8
:101A1000BB63B96B1B2000F0CBFF3B691946262046
:101A200000F0B2FFFB681946272000F0ADFFBB684D
:101A30001946282000F0A8FF03F0C0F90346194614
:101A4000292000F0B5FF13E0944B1B78052B0FD134
:101A5000934B1B68184605F045F90346002B07D049
:101A60008F4B1B6801338E4A13608E4B0A221A601B
:101A70008A4B1B78092B00F2578101A252F823F000
:101A8000A91A0008CB1A0008D71A0008E91A00089A
:101A9000551B0008A11B0008D91B0008791C000871
:101AA000B11C0008EB1C0008012005F007F97D4B74
:101AB0001B68013B7B4A13607A4B1B68002B40F08C
:101AC0002A81764B01221A7025E105F04FF8734BFD
:101AD00002221A7028E105F039F8704B03221A70BF
:101AE000704B1E221A601FE105F056F803466E4A3D
:101AF00013606C4B1B68013B6A4A1360142000F0B2
:101B000031FF0246684B1B689A420CBF0123002339
:101B1000DBB2002B06D0634B14221A605F4B042209
:101B20001A70FAE05F4B1B68002B40F0F6805B4BAD
:101B300001221A705D4B1B78002B05D000F02EFCA3
:101B40005A4B00221A70E8E000F05CFC574B01226F
:101B50001A70E2E0534B1B68013B524A1360514B31
:101B60001B68002B40F0DB8005F046F9044605F0C9
:101B700013F803469B0019462046FFF72FFB05F09C
:101B800045F9044605F008F8034619462046FFF7D4
:101B900039FB424B05221A70424B14221A60BEE0F8
:101BA000404B1B68013B3F4A13603E4B1B68002BB8
:101BB00002D13A4B01221A70394B1A683A4B1B6812
:101BC0009A4203DD354B06221A70ADE0344B1B6898
:101BD000184605F073F8A7E0324B1B68013B314A09
:101BE0001360002000F0BEFE0346032B0CBF012350
:101BF0000023DBB2002B0CD005F01CF9274B092287
:101C00001A70284B00221A600021002000F0BCFE50
:101C10008AE0002000F0A6FE0346012B0CBF012342
:101C20000023DBB2002B07D01C4B01221A700021CD
:101C3000002000F0A9FE77E0002000F093FE0346AC
:101C4000022B0CBF01230023DBB2002B03D0134B6C
:101C500007221A7068E0134B1B68002B06DC0F4B41
:101C600008221A700E4B01221A605DE00C4B1B68B3
:101C7000184604F0C5FF57E0002000F073FE03464D
:101C8000022B14BF01230023DBB2002B49D0034BEE
:101C900006221A7045E000BF398EE3384901002062
:101CA0000C00002004000020440100204801002016
:101CB000224B1C68012000F055FE034619462046C1
:101CC00005F044F81D4B1B6801331C4A13601B4B85
:101CD0001A681B4B1B689A4225DD1A4B06221A70A4
:101CE000194B4FF496721A601DE0174B1B68002BBE
:101CF0000BD105F0BFF878617B693C2B02D1114B09
:101D000001221A70104B04221A600F4B1B68013B12
:101D10000D4A136008E000BF06E000BF04E000BF0A
:101D200002E000BF00E000BF064B1B7819461820F8
:101D300000F02AFE00BF4437BD4690BD0C000020D5
:101D400044010020490100200400002080B588B033
:101D500000AF102000F006FEF861112000F0F2FD47
:101D6000B861152000F0FEFD78617B69002B05DC71
:101D70001B2000F0F7FD0346323B01E07B69323B5C
:101D80003B61BB693A6902FB03F35B11FA691344D7
:101D9000FB60BB695B423A6902FB03F35B11FA69C2
:101DA0001344BB60174802F07BFD03465B01164AF3
:101DB00082FB0312D211DB17D31A7B6079683120C2
:101DC00000F0F6FDFB681A460021104806F05DF8A9
:101DD000BB681A4602210D4806F057F8132000F0A0
:101DE000C1FD0346012B0CBF01230023DBB2002BF6
:101DF00004D0074B1B68184603F0C4FB00BF203714
:101E0000BD4680BD60030020E5D49A700004004008
:101E10002801002080B58CB000AF092000F0A2FDA1
:101E2000B8621F2000F08EFD78620023FB6205F08F
:101E3000BFFD0346012B94BF01230023DBB2002B1F
:101E400040F0C580BB6A012B03D0BB6A002B40F079
:101E5000A280614802F024FD0346FB615F4802F066
:101E60001FFD0346BB61072000F06CFD7861082070
:101E700000F078FD3861BB6A002B03D0FA69BB69BA
:101E8000D31A00E0FB69FB60FA683B69D31A5B0177
:101E90005A017B6992FBF3F3FB62FB6A13F1190FA2
:101EA00009DA4F4B1A68FB6AD31A4D4A13604D4B3F
:101EB00000221A6011E0FB6A192B09DD4A4B1A68EF
:101EC000FB6A1344484A1360464B00221A6004E040
:101ED000444B1B680133434A1360444B1A68FB6A46
:101EE0001344424A1360424B1B680133404A13605B
:101EF0003F4B1B68B3F57A7F63D1242000F022FDAD
:101F0000B860252000F01EFD7860374B1B68394A09
:101F1000A2FB03239A09BB681344BB60304B1B68C8
:101F2000344AA2FB03239A097B6813447B602F4B3E
:101F30001B68304A82FB03129211DB17D31A2B4A1B
:101F400013602A4B1B687A6A02FB03F35B113B6048
:101F5000264B1B6819461E2000F02AFD39682120F7
:101F600000F026FD204B00221A601D4B00221A6053
:101F70001F4B00221A601D4B00221A607968B86856
:101F8000FFF754F9B968242000F012FD7968252084
:101F900000F00EFD15E0FFF785F903465B01154AD9
:101FA00082FB03129211DB17D31AFB627B6AFA6A77
:101FB00002FB03F35B113B62396A212000F0F8FC5D
:101FC00000E000BFF96A1D2000F0F2FC00E000BF55
:101FD0003037BD4680BD00BF5C03002058030020A1
:101FE0005801002030010020540100205C01002035
:101FF00050010020D34D621090B583B000AF03466E
:10200000FB71FB79092B0DD0122B30D11A4B1C68B8
:10201000122000F0A7FC0346DBB21946204603F06D
:102020000BFC25E0092000F09DFC0346022B0CBFB1
:1020300001230023DBB2002B07D00F4B1B6818468F
:1020400002F0CCFC02F0D8FC11E0092000F08AFC80
:102050000346032B0CBF01230023DBB2002B06D069
:10206000064B1B68184602F0B9FC02F0C5FC00BF25
:1020700000BF0C37BD4690BD280100202C01002078
:1020800080B582B000AF786039603968786802F056
:102090000BFD00BF0837BD4680BD000080B500AF16
:1020A000034B1B68184600F095FB00BF80BD00BFC6
:1020B0002401002080B5ADF5556D00AF00F028F982
:1020C00000F0AFFA00F0CEF900F0BCFA00F094FA9C
:1020D00003F06AF800227349734802F0BBFB012247
:1020E0007049724802F0B6FB04226E49704802F053
:1020F000B1FB002310226B496E4801F0EBFF042373
:102100004FF400526C496D4801F0E4FF04234FF492
:1021100000726B496B4801F0DDFF04234FF48072BD
:102120006049694801F0D6FF0523012264496748E8
:1021300001F0D0FF052302226149654801F0CAFF82
:10214000012301225C49634801F0C4FF02F014FB43
:10215000122000F007FC0346DAB207F2D4735E499E
:10216000184603F0B5FA122000F0FCFB0346DAB281
:1021700007F516735949184603F0AAFA584A07F2A8
:10218000D4731360574A07F51673136007F2D473BC
:102190005549184603F0ECF807F5167352491846EE
:1021A00003F0E6F807F2D47340F21151184603F039
:1021B000EDF807F2D47340F22151184603F0E6F827
:1021C00007F2D47340F22251184603F0DFF807F209
:1021D000D47340F22651184603F0D8F807F5167369
:1021E00040F21151184603F0D1F807F5167340F28A
:1021F0002151184603F0CAF807F5167340F2225130
:10220000184603F0C3F807F5167340F22651184636
:1022100003F0BCF8354802F0FFFD02F0B3FE0346C0
:10222000002B06D0FFF716F8034619461C2000F0D5
:10223000BFFB07F50C732E49184600F04DFA2D4AE6
:1022400007F50C73136007F50C7301222A49184631
:1022500000F062FA07F50C730A222849184600F0CC
:102260005BFA07F50C7328222549184600F054FA4A
:1022700007F50C7364222349184600F04DFA092033
:10228000FFF7BAFE0421322000F07EFB381D002348
:102290001D4A1E4900F0B0FC3B1D184600F0A2FD8F
:1022A000FAE700BF00080140580300205C0300204B
:1022B000600300209C01002000100140A4010020C8
:1022C000000C0140AC010020B4010020BC01002042
:1022D000C4010020CC0100200064004000680040E0
:1022E000280100202C010020812000080081000826
:1022F0000008004024010020151E00084D1D0008A4
:1023000051170008E11200085092000800480040F0
:1023100080B500AF05F0AAFA1E4B1F4A1A6040F2C2
:10232000023005F02CFE40F2033005F028FE4FF499
:10233000417005F024FE40F2053005F020FE40F229
:102340000E3005F01CFE40F2923005F018FE40F20F
:10235000813005F014FE40F2823005F010FE4FF49B
:10236000207005F00CFE40F2093005F008FE40F246
:10237000862005F004FE4FF4407005F000FE40F2A8
:10238000993005F0FCFD40F29A3005F0F8FD00BFF1
:1023900080BD00BF0CED00E00003FA0580B500AF82
:1023A000154B1B68144A23F0040313604FF40073A9
:1023B00002220321114805F00FF9402301220021D8
:1023C0000F4805F009F98023002203210C4805F08D
:1023D00003F980210A4805F0DEFB4FF480630222F6
:1023E0000021064805F0F8F84FF48061034805F035
:1023F000D4FB00BF80BD00BF0400014000080140C5
:10240000000C014080B500AF4FF48271002005F050
:1024100013F94FF4007301220021104805F0DCF895
:102420004023022203210E4805F0D6F88023022221
:1024300000210B4805F0D0F88021094805F0ABFBDE
:102440004FF4806300220321044805F0C5F84FF4DF
:102450008061024805F0A1FB00BF80BD000801407B
:10246000000C014080B500AF4FF4806302220321CD
:102470005A4805F0B1F8FFF791FF42F21071584841
:1024800005F01CFD0821564805F02CFD4FF40051C5
:10249000534805F030FD0821514805F038FD002172
:1024A0004F4805F02EFD00214D4805F036FD4D4BFF
:1024B0001B684C4A43F040031360494805F043FD54
:1024C000474805F045FD0521474805F0D9FA474A38
:1024D0000521454805F040FB00220521424805F052
:1024E000FDFA00220521404805F0EBFA05213E489F
:1024F00005F001FB04213C4805F0C2FA04213A48EA
:1025000005F00FFB394A0421374805F025FB00226E
:102510000421354805F0E2FA00220421324805F092
:10252000D0FA0421304805F0E6FA2D4805F0FBFC0E
:102530004FF4E1312E4805F0C1FC08212C4805F08C
:10254000D1FC00212A4805F0D6FC0C21284805F0D2
:10255000DEFC0021264805F0D4FC0021244805F0CB
:10256000DCFC234805F0EFFC214805F0F1FC0221DA
:102570001D4805F085FA02211B4805F0D2FA1D4AD4
:102580000221194805F0E8FA00220221164805F058
:10259000A5FA00220221144805F093FA02211248FC
:1025A00005F0A9FA0321104805F06AFA114A03213F
:1025B0000D4805F0D1FA002203210B4805F08EFAF0
:1025C00000220321084805F07CFA0321064805F0A3
:1025D00092FA074805F0A7FC00BF80BD000C01403F
:1025E000003801400C38014000000240043801402E
:1025F000004800400448004080B500AF1B2005F0B3
:1026000061FD10211E2005F06BFD252005F05AFD0F
:102610001E2005F057FDE0211E2005F061FD00BFE2
:1026200080BD80B500AF4FF22541032005F0F2F9DF
:102630004FF2254005F0ACF9002005F0C3F900BFCA
:1026400080BD000080B500AF214805F0EBFA002105
:102650001F4805F0D3FA1E4805F0CBFA06220021E8
:102660001B4805F0E8FA06220221194805F0E3FAB2
:102670000021174805F0A5FB0221154805F0A1FB34
:102680000021134805F0B7FB0221114805F0B3FB08
:1026900000210F4805F0D4FB02210D4805F0D0FBC6
:1026A00001210B4805F001FC0021094805F0BFFAA3
:1026B0004FF48051064805F0BCFA054805F0ADFA24
:1026C000C02302220321034804F086FF00BF80BD1F
:1026D000000400400008014080B582B000AF78607F
:1026E00039607B683A681A62386805F082FA38689F
:1026F00005F08EFA40F2CF21386805F098FA4FF6CF
:10270000FF71386805F095FA7B6800225A627B6891
:1027100018460837BD4680BD80B584B000AFF8606C
:10272000B9601346FB80FB685B6A032B4BDCFB68DC
:102730001B6A184605F076FAFB68186AFB685B6A44
:10274000234AD35C0122194605F075FAFB68186A22
:10275000FB685B6A1E4AD35C0022194605F095FBB4
:10276000FB685A6AFB68B96843F82210FB685A6A2A
:10277000FB88194689000B44194688001946034610
:102780000B449B0099B2FB68083223F81210FB68D7
:102790001A6AFB685B6A022101FA03F319461046C4
:1027A00005F01AFAFB681B6A0021184605F083FB46
:1027B000FB681B6A184605F030FAFB685B6A5A1C16
:1027C000FB685A6200E000BF1037BD4680BD00BF05
:1027D0001881000880B584B000AF78600023FB60EA
:1027E0003FE07B681A6A0221FB6801FA03F319468D
:1027F000104605F0F5F90346002B2FD07B681B6AC5
:10280000184605F056FB03467B81FB689A007B68FF
:102810001B6A134434331B687A68F968083132F84C
:1028200011201046FA6891007A68126A0A4434321C
:10283000034413607B68FA6853F8223098477B683A
:102840001B6A184605F035FB03469AB27B89D31AFA
:1028500099B27B68FA680C3223F81210FB680133D6
:10286000FB607B685B6AFA689A42BADB7B681B6A2A
:102870001E21184605F0BAF900BF1037BD4680BDCD
:1028800080B487B000AF786000237B6100233B6198
:1028900019E07B683A690C3233F812301A46134655
:1028A0009B0013445B0019467B683A69083233F891
:1028B000123091FBF3F3FB607A69FB6813447B6190
:1028C0003B6901333B617B685B6A3A699A42E0DBB2
:1028D0007B6918461C37BD4680BC704780B584B004
:1028E00000AF03463960FB71FF23FB73FA7913498C
:1028F0001346DB009B1A9B000B440C331B683A68A1
:102900009A4216DBFA790D491346DB009B1A9B00AD
:102910000B4410331B683A689A420ADCFB79084979
:102920003A6841F82320FB791846FFF765FB00233E
:10293000FB73FB7B18461037BD4680BD50850008F1
:102940001800002080B483B000AF0346FB71FB7910
:10295000034A52F8233018460C37BD4680BC7047F6
:102960001800002080B483B000AF0346FB71FB79F0
:10297000044A52F823305B1118460C37BD4680BC20
:10298000704700BF1800002080B483B000AF03463A
:102990003960FB71FB793A685201044941F8232000
:1029A00000BF0C37BD4680BC704700BF1800002038
:1029B00080B483B000AF03463960FB71FB790449F2
:1029C0003A6841F8232000BF0C37BD4680BC7047F1
:1029D0001800002080B586B000AF78603523FB7505
:1029E000114B3B610023FB6016E03B695B68796833
:1029F000184601F0EFF90346002B0CBF012300231A
:102A0000DBB2002B02D0FB68FB7508E0FB680133EA
:102A1000FB603B691C333B61FB68332BE5DDFB7DD1
:102A200018461837BD4680BD5085000880B487B071
:102A300000AF78603523FB750D4B3B610023FB60D5
:102A40000DE03B699B697A689A4202D1FB68FB758D
:102A500008E0FB680133FB603B691C333B61FB68AA
:102A6000332BEEDDFB7D18461C37BD4680BC70471E
:102A70005085000880B483B000AF0346FB71FA793B
:102A80001346DB009B1A9B00034A134418460C377D
:102A9000BD4680BC704700BF5085000880B483B03D
:102AA00000AF0346FB71FA790D491346DB009B1A10
:102AB0009B000B440C331968FA7909481346DB0074
:102AC0009B1A9B00034410331B68994214BF0123D7
:102AD0000023DBB218460C37BD4680BC704700BFF0
:102AE0005085000880B582B000AF0F4B7B6000239B
:102AF0003B6011E07B689B69002B07D03B68DAB232
:102B00007B685B6919461046FFF752FF3B6801334B
:102B10003B607B681C337B603B68332BEADD00BF86
:102B200000BF0837BD4680BD5085000880B483B023
:102B300000AF03460A46FB711346BB71FB7904499B
:102B4000BA79CA5400BF0C37BD4680BC704700BF7D
:102B50006001002080B483B000AF03460A46FB71D9
:102B60001346BB71FB79064AD15CFB79BA790A43FB
:102B7000D1B2034AD15400BF0C37BD4680BC704768
:102B80006001002080B483B000AF03460A46FB71A9
:102B90001346BB71FB79074AD15CBB79DB43DAB2E0
:102BA000FB790A40D1B2034AD15400BF0C37BD466D
:102BB00080BC70476001002080B483B000AF034642
:102BC000FB71FB79034AD35C18460C37BD4680BCC9
:102BD000704700BF6001002080B483B000AF786010
:102BE000044A7B681A607B6818460C37BD4680BC77
:102BF000704700BFEC8B000880B586B000AFF8606E
:102C0000B9607A60FB70FB681846FFF7E5FF714A10
:102C1000FB681A60FB68BA689A60FB68FA781A73F6
:102C2000FB687A681A61FB6801221A75FB68012249
:102C30005A75FB6801229A75FB6800229A61FB684D
:102C40000022DA61FB68002283F82020FB68002262
:102C50005A62FB68012283F82820FB685E4A5A60AA
:102C600000237B610EE0FB685B681B68BA689A42D0
:102C70000CD0FB685B6803F11802FB685A607B6943
:102C800001337B617B69022BEDD900E000BF534A21
:102C9000FB681360FB78002B03D0FB685B68186946
:102CA00002E0FB685B689868FB78002B03D0FB6848
:102CB0005B689B8A02E0FB685B689B8902220321B8
:102CC00004F08AFC4FF4E131B86805F0F7F8082108
:102CD000B86805F007F94FF40051B86805F00BF932
:102CE0000C21B86805F013F90021B86805F009F95E
:102CF0000021B86805F011F9B86805F024F9B86842
:102D000005F026F9FB685B681B791946344804F026
:102D1000B7FEFB685B681B791946314804F001FF78
:102D2000FB685B681979BB6804331A462C4804F0C9
:102D300013FFFB685B681B7900221946284804F0E2
:102D4000CDFEFB685B681B7900221946244804F01D
:102D5000B8FEFB685B681B791946214804F0CBFE7E
:102D6000FB685B685B7919461D4804F089FEFB68C7
:102D70005B685979BB6804331A46194804F0ECFEC5
:102D8000FB685B685B7900221946154804F0A6FED3
:102D9000FB685B685B7900221946114804F091FEDC
:102DA000FB685B685B7919460D4804F0A4FEFB687C
:102DB0005B685B7919460A4804F0BCFEF86800F0CD
:102DC000B1F9B86805F0AFF8FB6818461837BD468A
:102DD00080BD00BFE08B0008008B0008940100203C
:102DE0000000024080B586B000AF78607B685B6809
:102DF0005B791946754804F0C1FE0346FB60FB6829
:102E0000C3F180037B61FB68002B12D1786800F06E
:102E100089F90EE07B6898687B68DB69591C7A68E1
:102E2000D1617A68134493F829309BB2194605F0B2
:102E30007FF87B68DB697A699A42EBDC7B69002B5F
:102E400040F3C0807B69013B7A68134493F82930D2
:102E50000A2B08D07B69013B7A68134493F8293028
:102E60000D2B40F095807A687B691344293300224A
:102E70001A707B680022DA617B68293320211846AA
:102E800001F007F838613B691B78002B0BD17B6898
:102E900029330A21184600F0FCFF38617B680022C4
:102EA00083F8A92108E07B6803F2A9123B6901338A
:102EB0001946104600F0BAFF3B691B78002B06D17B
:102EC0007B6829330D21184600F0E3FF38613B6928
:102ED00000221A707B6800229A617B6829333C4982
:102EE000184600F077FF0346002B0CBF0123002398
:102EF000DBB2002B09D07B6803F2A913194678686E
:102F000000F03AF900237B6120E07B6829333149E6
:102F1000184600F05FFF0346002B0CBF012300237F
:102F2000DBB2002B09D07B6803F2A913194678683D
:102F300000F07AF900237B6108E07B6829331946A9
:102F4000786800F0A5F902467B689A61786800F01D
:102F5000E9F87B689B69002B0ED07B689B6818465C
:102F600005F003F87B689B695B687A6802F2A91236
:102F700011467868984724E07B69012B21DD7B6846
:102F80005B7D002B1DD01449786800F0B4F918E07F
:102F90007B6893F82930212B14D17B689B69002B27
:102FA00010D0786800F0BEF87B680022DA617B6898
:102FB0009B695B687A6802F2A912114678689847A3
:102FC00000E000BF00BF1837BD4680BD00000240D2
:102FD000488B0008548B0008608B000880B582B0D5
:102FE00000AF78600B46FB707B689B7D83F001032C
:102FF000DBB2002B08D07B689B68FA7892B211464E
:10300000184604F095FF86E0FB780A2B03D07B6816
:103010005B6A7F2B6DD17B6893F820301A467B6802
:103020005B6A7968D2010A441344A933FA781A70AA
:1030300000BF7B685B681B7902221946384804F0A0
:1030400036FD034683F00103DBB2002B09D07B6819
:1030500093F8283083F00103DBB2002B01D0012369
:1030600000E00023002BE4D17B685B681B791946E4
:103070002B4804F068FD7B685B6819797B685B6AA4
:103080009BB201339BB21A46254804F07EFD7B6853
:103090005B6819797B6893F82030DB01A8337A6884
:1030A000134401331A461E4804F05FFD7B685B68D9
:1030B0001B79022219461A4804F0F3FC7B685B680E
:1030C0001B791946164804F035FD7B6893F82030CB
:1030D000002B0CBF01230023DBB21A467B6883F868
:1030E00020207B68002283F828207B6800225A6217
:1030F00011E07B6893F820301A467B685B6A796838
:10310000D2010A441344A933FA781A707B685B6AC7
:103110005A1C7B685A6200BF0837BD4680BD00BF9D
:103120000000024080B582B000AF78607B685B68C9
:103130005B7919460F4804F006FD7B685B68597996
:103140007B6829331A460B4804F00FFD7B685B68E7
:103150005B7980221946074804F017FD7B685B689D
:103160005B791946034804F0E5FC00BF0837BD460B
:1031700080BD00BF0000024080B584B000AF786021
:103180003960386800F036FF3860386800F0FFFEBC
:10319000F8607B681B7D1A46FB68934221D17B68EF
:1031A00001225A757B681B7B002B03D07B685B6810
:1031B000186902E07B685B6898687B681B7B002B62
:1031C00003D07B685B689B8A02E07B685B689B89B5
:1031D0000222032104F000FA1249786800F08BF80B
:1031E0001CE07B6800225A757B681B7B002B03D098
:1031F0007B685B68186902E07B685B6898687B683D
:103200001B7B002B03D07B685B689B8A02E07B689A
:103210005B689B890122002104F0DEF900BF1037B2
:10322000BD4680BDB88B000880B584B000AF786023
:103230003960386800F0DEFE38603B681B78302B60
:1032400002D14FF4E13301E04FF46123FB607B686E
:103250005B7D002B07D00C49786800F04CF80B49D7
:10326000786800F048F87B689B68FA681146184651
:1032700004F024FE7B689B680021184604F03BFEA6
:1032800000BF1037BD4680BDB88B0008C08B00085A
:1032900080B584B000AF786039607B681B69FB60E3
:1032A0007B685B7D83F00103DBB2002B12D000232F
:1032B0001DE0FB681B681946386800F08BFD03466B
:1032C000002B0CBF01230023DBB2002B07D1FB68CE
:1032D0000833FB60FB681B68002BEAD100E000BFED
:1032E000FB681B68002B01D10023FB60FB681846BC
:1032F0001037BD4680BD80B582B000AF78603960C0
:103300000BE07B689A683B681B789BB219461046B5
:1033100004F00EFE3B6801333B603B681B78002BDA
:10332000EFD100BF00BF0837BD4680BD80B582B079
:1033300000AF7860064B1A68054B1B681B681B685A
:103340007968C9B21046984700BF0837BD4680BDAE
:103350009401002080B586B000AF7860396038688D
:1033600000F048FE38602021386800F092FD786156
:103370007B691B78002B04D11B49786801F0C0F9E8
:103380002EE07B6900221A707B6901337B61052185
:10339000786900F04BFF38613868FFF71BFB034684
:1033A000FB73FB7B352B16D0FB7B39691846FFF787
:1033B00095FA0346002B0CBF01230023DBB2002B40
:1033C00004D00A49786801F09BF909E00849786857
:1033D00001F096F904E03A680649786801F090F93E
:1033E0001837BD4680BD00BFF08B00080C8C00086C
:1033F000188C0008308C000880B586B000AF78606B
:103400003960386800F0F6FD38602C21386800F02B
:1034100040FD78617B691B78FB747B6900221A7020
:103420003868FFF7D7FA0346BB74BB7C352B0AD04C
:10343000BB7C1846FFF786FAF860FA680C49786892
:1034400001F05EF904E03A680A49786801F058F939
:103450007B69FA7C1A707B6901333B607B691B785E
:103460002C2BD2D000BF00BF1837BD4680BD00BF97
:10347000488C0008508C000880B584B000AF78609C
:103480003960386800F0B6FD38602021386800F0F7
:1034900000FDF860FB681B78002B04D12D4978688B
:1034A00001F02EF952E0FB6800221A70FB6801332C
:1034B000FB603868FFF78EFA03467B727B7A352B08
:1034C0003FD00023FB720023BB72FB681B78212BCB
:1034D00007D0FB681B787E2B03D0FB681B782F2B53
:1034E00004D10123FB72FB680133FB60F9681A48C1
:1034F00000F070FC0346002B0CBF01230023DBB25D
:10350000002B01D00123BB72BB7A002B14D0FB7AB5
:10351000002B06D0BA7A7B7A11461846FFF732FBA9
:1035200005E0BA7A7B7A11461846FFF713FB0B4980
:10353000786801F0E5F809E00949786801F0E0F8F9
:1035400004E03A680749786801F0DAF81037BD46B8
:1035500080BD00BF6C8C00087C8C0008848C000847
:10356000988C0008308C0008B0B590B002AF78603D
:103570003960352387F82F300423BB62386800F0A8
:1035800039FD38603B681B78702B13D100BF9A4B14
:103590001B68002BFBD1984A7B681360002002F067
:1035A00053FA03469549184602F0F3F9924B00226C
:1035B0001A601DE13B681B78632B0BD1002002F0E1
:1035C00043FA0346184602F04DF88D49786801F039
:1035D00097F80DE13B681B7887F827302021386881
:1035E00000F057FC38603B681B78002B04D18549FC
:1035F000786801F085F8FBE0386800F0FBFC386083
:103600002021386800F045FC38623B6A1B78002BAB
:1036100008D197F82730642B04D07A49786801F0F4
:103620006FF8E5E03B6A00221A703868FFF7D2F9BC
:10363000034687F82F303B6A0133184600F0DAFC66
:10364000386097F82F30352B04D16F49786801F036
:1036500057F8CDE097F82730642B10D1002002F006
:10366000F3F9024697F82F301946104602F011F888
:1036700078637A6B6549786801F042F8B8E0002316
:103680003B6349E02021386800F003FC38623B6A64
:103690001B78002B07D13B6B022B04DC594978685F
:1036A00001F02EF8A4E03B6A00221A70386800F09E
:1036B0006EFCF8613B6B032B1ED1FB69002B1BD109
:1036C0001021386800F0B2FD02463B6B9B00383396
:1036D0003B4443F82C2C3B6B9B0038333B4453F862
:1036E0002C3C4FF4001292FBF3F23B6B9B003833FF
:1036F0003B4443F82C2C06E03B6B9B0038333B44A7
:10370000FA6943F82C2C3B6A0133184600F072FC2E
:1037100038603B6B01333B633B6B032BB2DD97F8A7
:103720002730742B13D1002002F08EF90546F8687B
:103730003C697B69BA6912B297F82F100192009325
:1037400023460246284601F0D9FD786312E00020A6
:1037500002F07AF90546F8683C697B69BA6912B2E9
:1037600097F82F100192009323460246284601F055
:10377000DFFD78637B6B0533042B2ED801A252F852
:1037800023F000BFC3370008D1370008B537000861
:10379000A737000899370008FB681A461C49786863
:1037A00000F0AEFF24E03B691A461A49786800F041
:1037B000A7FF1DE07B691A461749786800F0A0FF53
:1037C00016E0FB681A461549786800F099FF0FE08B
:1037D0001349786800F094FF0AE07B6B012B01DD50
:1037E000104B00E0104B7A6B1049786800F088FFAE
:1037F0003837BD46B0BD00BF9801002041380008F1
:10380000DC8D0008008E0008C88C0008148E0008AB
:103810002C8E0008408E0008548E0008688E000828
:10382000908E0008AC8E0008DC8C0008B08E00087A
:1038300080B582B000AF7860396004F03BFC0000D6
:1038400080B58AB004AFB9607A603B600346FB7311
:10385000FB7B1846FFF70EF903465B687B61144B50
:103860001B681449184600F04BFF97F82430002BD2
:1038700006D00F4B1B681049184600F041FF05E0C9
:103880000B4B1B680D49184600F03AFF084B1868AF
:103890003B6A02933B6801937B680093BB687A693B
:1038A000074900F02DFF00BF1837BD4680BD00BF9F
:1038B00098010020348F00083C8F0008408F0008DA
:1038C000448F000880B483B000AF7860396000BFD7
:1038D0000C37BD4680BC7047B0B596B004AF786079
:1038E000396003F059F9B86303F086FA786303F09E
:1038F0008DFA386303F094FAF8626E4800F0E6FE41
:1039000000237B646FE07B6CDBB21846FFF7B2F8F4
:1039100038627B6CDBB21846FFF74EF9034603F0C2
:103920000103002B0CBF01230023DBB2002B57D077
:103930003B6A5C683B6A9D687B6CDBB21846FFF7AC
:1039400001F803462A4621465B4800F0BFFE0020EE
:1039500002F07AF804467B6CD9B207F1180007F13F
:103960001C0207F11303029307F10C03019307F103
:10397000140300930346204601F02FFD0346002B5D
:1039800010D0F969B8697C69FB68FA7C002A01D01B
:103990004A4A00E04A4A01920093234602464948B7
:1039A00000F094FE7B6CDBB21846FFF777F8034615
:1039B000002B14BF01230023DBB2002B0DD03B6A88
:1039C000D9683B6A1A693B6A58693B6A1B6800936D
:1039D00003463D4800F07AFE02E03C4800F076FEE7
:1039E0007B6C01337B647B6C332B8CD9384B19682F
:1039F000384B1A68384B1B68384800F067FE0023C4
:103A00003B644CE03A6C13465B0013445B001A467F
:103A1000FB6A1344BB620023FB6318E03B6C9A0013
:103A2000FB6B13445B007A6B13441B88FB84FB8C99
:103A300041F28732934207D83B6C591CFB6B5A1CEE
:103A4000FB8C274800F042FEFB6B0133FB63FB6BF2
:103A5000032BE3DD3B6C591C3B6C3A6B134493F92D
:103A600000301A461F4800F031FE3B6C591CBB6AFF
:103A70001B781846BB6A01331B781C46BB6A0233AD
:103A80001B781A46BB6A03331B78019300922346C6
:103A90000246154800F01AFE3B6C01333B643A6C59
:103AA000BB6B9A42AEDB114800F010FE00BF4837F6
:103AB000BD46B0BDC48F0008C88F0008EC8F000859
:103AC000F48F0008FC8F00084090000888900008E0
:103AD000F0F7FF1FECF7FF1FE8F7FF1F9C900008AF
:103AE000DC90000818910008549100089C9100088F
:103AF00080B586B000AF78607B681B78752B21D1CC
:103B00007B6802337B602E21786800F0C2F978610F
:103B10007B6900221A70786800F039FA0346013B8D
:103B20003B617B692E221A707B6901337B60786868
:103B300000F02DFA0346013BFB603B699A00FB68ED
:103B4000134401E04FF0FF3318461837BD4680BDDF
:103B500080B596B000AF786039600A237B6400239B
:103B60007B654FF0FF333B65386800F043FA3860FF
:103B7000386800F00CFA38652021386800F089F9BF
:103B800038603B681B78002B03D14C4800F09EFD49
:103B900090E03B6801333B602C21386800F079F9F4
:103BA000F864FB6C1B7887F84330FB6C00221A70BA
:103BB0003868FEF70FFF034687F842303868FFF792
:103BC00097FFF863FB6C97F843201A70FB6C013386
:103BD0003B6007F130027B6D134497F842201A7066
:103BE0007B6D9B0058333B44FA6B43F8502C7B6D44
:103BF00001337B65FB6C1B782C2B03D17A6D7B6CBE
:103C00009A42C9DB7B6D7B642D4804F0AAF93BE046
:103C10002C4BFB6400237B6528E007F130027B6DB1
:103C200013441B78352B0ED103F0E6F802467B6D6A
:103C30009B0058333B4453F8503C5B0013441B88B3
:103C40005B01BB6408E007F130027B6D13441B7815
:103C50001846FEF777FEB864BA6CF96C1A4800F0A3
:103C600035FD1A4BFB647B6D01337B657A6D7B6C94
:103C70009A42D2DB164800F029FD3B6DB3F1FF3FBD
:103C800002D03B6D013B3B6520210D4804F071F9EA
:103C9000034683F00103DBB2002B08D03B6D002B01
:103CA00003DC3B6DB3F1FF3F01D1012300E00023B2
:103CB000002BADD15837BD4680BD00BFA491000890
:103CC00000480040C4910008C8910008D091000845
:103CD000D491000880B582B000AF78603960FEF7FB
:103CE00001FF034800F0F2FC00BF0837BD4680BD6D
:103CF000D891000880B584B000AF786039600020AA
:103D000001F0A2FE0346184601F0CEFB064800F083
:103D1000DDFC01F07BF9F860F968044800F0D6FC9E
:103D200000BF1037BD4680BDEC910008FC91000833
:103D300080B582B000AF7860396001F035FA034693
:103D4000002B0CBF01230023DBB2002B06D0002088
:103D5000FEF752F9054800F0B9FC02E0044800F013
:103D6000B5FC00BF0837BD4680BD00BF18920008F3
:103D70002C92000880B582B000AF7860396001F005
:103D800061FA00BF0837BD4680BD000080B582B033
:103D900000AF78603960064B1968064B1A68064B0D
:103DA0001B68064800F092FC00BF0837BD4680BD86
:103DB000F0F7FF1FECF7FF1FE8F7FF1F4492000822
:103DC00080B483B000AF7860396000BF0C37BD4667
:103DD00080BC704780B485B000AF78603960002344
:103DE000FB600BE07B681A783B681B789A420ED127
:103DF0007B6801337B603B6801333B607B681B78E9
:103E0000002B05D03B681B78002BEBD100E000BFF6
:103E10007B681A783B681B789A4201D00123FB60CB
:103E2000FB6818461437BD4680BC704780B483B029
:103E300000AF7860396009E03B681A787B681A70D7
:103E40007B6801337B603B6801333B603B681B78D8
:103E5000002BF1D17B6800221A7000BF0C37BD46E1
:103E600080BC704780B485B000AF78600023FB60F1
:103E700005E07B6801337B60FB680133FB607B6896
:103E80001B78002BF5D1FB6818461437BD4680BC63
:103E9000704780B483B000AF78600B46FB7002E0DF
:103EA0007B6801337B607B681B78002B04D07B68C8
:103EB0001B78FA789A42F3D17B6818460C37BD46D6
:103EC00080BC704780B489B000AFF860B9607A6098
:103ED000FB68FB610023BB61BB68002B0FDAFB684A
:103EE0002D221A70FB680133FB60FB690133FB6113
:103EF000BB690133BB61BB685B42BB6023E0BB684D
:103F0000002B20D1FB6830221A70FB68013300229D
:103F10001A70012336E0BB687A6893FBF2F2796885
:103F200001FB02F29B1ADBB23033DAB2FB681A7083
:103F3000BA687B6892FBF3F3BB60FB680133FB60FC
:103F4000BB690133BB61BB68002BE4DCFB6800226A
:103F50001A70FB68013BFB600FE0FB691B78FB7587
:103F6000FB681A78FB691A70FB68FA7D1A70FB68A7
:103F7000013BFB60FB690133FB61FA68FB699A4214
:103F8000EBD8BB6918462437BD4680BC704780B467
:103F900085B000AF78600023FB600123BB607B68C5
:103FA0001B782D2B15D14FF0FF33BB607B6801339D
:103FB0007B600EE0FA6813469B0013445B00FB60D5
:103FC0007B681B78303BFA681344FB607B680133E5
:103FD0007B607B681B782F2B03D97B681B78392B80
:103FE000E8D9BB68FA6802FB03F318461437BD46EC
:103FF00080BC704780B584B000AF786002E07B6819
:1040000001337B607B681B78202BF8D07B681B78A2
:104010000A2BF4D07B681B780D2BF0D07B681B78C3
:10402000002B01D17B6820E07868FFF71BFF034677
:10403000013B7A681344FB6002E0FB68013BFB60D4
:10404000FA687B689A420BD9FB681B78202BF4D066
:10405000FB681B780A2BF0D0FB681B780D2BECD08B
:10406000FB68013300221A707B6818461037BD4682
:1040700080BD80B485B000AFF860B9607A6007E0B9
:10408000BA68131DBB60FB68191DF96012681A60DD
:104090007B685A1E7A60002BF2D100BF00BF143734
:1040A000BD4680BC704780B485B000AFF860B96091
:1040B0007A6004E0FB681A1DFA60BA681A607B68CF
:1040C0005A1E7A60002BF5D100BF00BF1437BD46E1
:1040D00080BC704780B586B000AFF860B96011460B
:1040E0001A460B46FB8013467B710023FB750223A7
:1040F000BB750023BB82FB68BA681A60FB68FA884C
:104100009A807B79013B042B21D801A252F823F03D
:10411000254100082B4100083141000837410008C3
:10412000414100080123BB8212E00123BB750FE06F
:104130000023BB750CE00323FB750023BB7507E070
:104140000323FB750123BB750123BB8200E000BF85
:10415000BB8A012B04D1FB881946B86803F01BFD0C
:10416000FB88BA7DF97DB86803F036FA00BF1837CE
:10417000BD4680BD80B588B000AF786039603B68CF
:10418000002B02DA4FF0FF3300E001237B617B69F3
:104190003A6802FB03F35B113B617B693A6802FBFF
:1041A00003F303F01F03642202FB03F35B11FB60C4
:1041B0007B68FB617B69002B05DAFB692D221A7095
:1041C000FB690133FB610A223969F869FFF77AFE5E
:1041D00003461A46FB691344FB61FB692E221A70E1
:1041E000FB690133FB610A23BB610FE0FA68BB691D
:1041F0009A4205D2FB6930221A70FB690133FB61D8
:10420000BB69094AA2FB0323DB08BB61BB69012B25
:10421000ECD8FB680A221946F869FFF753FE7B6861
:1042200018462037BD4680BDCDCCCCCC80B487B0FD
:1042300000AF7860396000237B6100233B610A2373
:10424000FB600123BB607B681B782D2B15D14FF0E1
:10425000FF33BB607B6801337B600EE07A691346F5
:104260009B0013445B007B617B681B78303B7A6961
:1042700013447B617B6801337B607B681B782F2B49
:1042800003D97B681B78392BE8D97B681B78002B16
:1042900027D07B6801337B601BE0FB68DA0F134497
:1042A0005B1019467B681B78A3F130023B6802FA69
:1042B00003F3CA18FB6892FBF3F33A6913443B61BA
:1042C000FA6813469B0013445B00FB607B68013374
:1042D0007B607B681B782F2B03D97B681B78392B7D
:1042E000DBD97A693B689A403B691344BA6802FBA0
:1042F00003F318461C37BD4680BC704780B582B0BA
:1043000000AF78600B46FB70FB781846FFF70EF89D
:1043100000BF0837BD4680BD2DE9F04184B000AF35
:10432000F860B9607A603B6000244FF020087B6839
:10433000002B17DD0025BE6801E00135013633781A
:10434000002BFAD17B689D4202DB00237B6002E0F8
:104350007B685B1B7B603B6803F00203002B01D092
:104360004FF030083B6803F00103002B1CD10BE039
:10437000FB681B681B685FFA88F21146F86898476B
:1043800001347B68013B7B607B68002BF0DC0BE039
:10439000FB681B681B68BA6812781146F868984772
:1043A0000134BB680133BB60BB681B78002BEFD1C5
:1043B0000BE0FB681B681B685FFA88F21146F8681F
:1043C000984701347B68013B7B607B68002BF0DC05
:1043D000234618461037BD46BDE8F0812DE9F0436D
:1043E00089B000AFF860B9607A603B604FF00009B7
:1043F0000026BD68BB68002B0CD130233B75002321
:104400007B7507F114017B6C3A6CF868FFF784FF49
:1044100003464CE03B68002B0AD07B680A2B07D18F
:10442000BB68002B04DA4FF00109BB685B421D46F4
:1044300007F114040B340023237015E07B68B5FBEF
:10444000F3F202FB03F3EB1A9846B8F1090F02DD11
:10445000BB6C3A3B98445FFA88F3013C3033DBB2E3
:1044600023707B68B5FBF3F5002DE7D1B9F1000FA0
:1044700015D03B6C002B0FD07B6C03F00203002B9C
:104480000AD0FB681B681B682D21F8689847013625
:104490003B6C013B3B6402E0013C2D2323707B6CB1
:1044A0003A6C2146F868FFF737FF03463344184655
:1044B0002437BD46BDE8F08380B588B000AFF86012
:1044C000B9607A603B6007F11403B9681846FFF7DA
:1044D00051FE07F114013B687A68F868FFF71CFF8A
:1044E000034618462037BD4680BD00002DE9F04147
:1044F0008AB004AFF860B9607A600024D6E0BB6887
:104500001B78252B40F0C380BB680133BB600026BD
:104510003546BB681B78002B00F0CE80BB681B784B
:10452000252B00F0B680BB681B782D2B09D1BB680A
:104530000133BB60012604E0BB680133BB6046F079
:104540000206BB681B78302BF6D00BE02B469B0095
:104550002B445B001D46BB681B78303B1D44BB6889
:104560000133BB60BB681B782F2B03D9BB681B785A
:10457000392BEBD9BB681B78732B12D17B681A1DC2
:104580007A601B689846B8F1000F01D0414600E000
:104590004D4933462A46F868FFF7BEFE03461C44E1
:1045A00081E0BB681B78642B0FD17B681A1D7A6091
:1045B0001968612302930196009501230A22F86885
:1045C000FFF70CFF03461C446DE0BB681B78782B9B
:1045D0000FD17B681A1D7A601968612302930196D6
:1045E000009500231022F868FFF7F8FE03461C44EC
:1045F00059E0BB681B78582B0FD17B681A1D7A6075
:104600001968412302930196009500231022F8684F
:10461000FFF7E4FE03461C4445E0BB681B78752B9E
:104620000FD17B681A1D7A60196861230293019685
:10463000009500230A22F868FFF7D0FE03461C44C9
:1046400031E0BB681B78662B0BD17B681A1D7A6042
:10465000196833462A46F868FFF72EFF03461C44C4
:1046600021E0BB681B78632B1DD17B681A1D7A6023
:104670001B68DBB23B7500237B7507F114013346E1
:104680002A46F868FFF748FE03461C440BE000BFCB
:1046900000E000BFFB681B681B68BA68127811460F
:1046A000F86898470134BB680133BB60BB681B786E
:1046B000002B7FF424AF00E000BF234618461837D4
:1046C000BD46BDE8F08100BFC89200080FB480B5B8
:1046D00082B000AF094B7B6007F114033B603B1DC8
:1046E0003A6839691846FFF701FF0346184608374C
:1046F000BD46BDE8804004B0704700BFD8920008B6
:104700000EB480B585B000AF786007F12003FB6080
:10471000FA68F9697868FFF7E9FE03461846143726
:10472000BD46BDE8804003B07047000080B483B050
:1047300000AF786039603B685B00054A1A447B68CB
:104740001A607B6818460C37BD4680BC704700BFB6
:10475000D801002080B483B000AF78607B681B680C
:10476000044A9B1A5B109BB218460C37BD4680BCAE
:10477000704700BFD801002080B582B000AF2F483D
:1047800002F074FC2D4802F076FC2C4802F07DFC0F
:104790002A4802F075FC0621284802F052FC2748FE
:1047A00002F019FC00237B6002E07B6801337B6030
:1047B0007B68234A9342D4BF01230023DBB2002B42
:1047C000F3D11E4802F020FC1C4802F030FC1D4AC8
:1047D00003211A4802F05EFC184802F094FC1A4AC1
:1047E00001211A4803F0B8F9194B1A46012117485C
:1047F00003F0BBF94FF480720121144803F06EF905
:104800004FF480620121114803F05BF9C0220121BD
:104810000E4803F0BAF901210C4803F06CF90121AC
:104820000A4803F071F90121084803F083F90348AD
:1048300002F0D9FB00BF0837BD4680BD002401400F
:104840007F380100D40100204C24014000000240C8
:10485000D8010020B0B584B000AFF860B96013464D
:10486000FB71FB79012202FA03F39BB200220021C3
:10487000B86802F0B1FEFC79F868FFF76BFF0346F9
:104880001D462146B86800F02FF803461A46034B30
:104890005A5500BF1037BD46B0BD00BFD40100203F
:1048A00080B487B000AF78607B681B687B610023B1
:1048B0003B610023FB600BE07B691B881A463B6968
:1048C00013443B61FB680133FB607B6906337B610A
:1048D000FB683F2BF0DD3B699B099BB218461C37F8
:1048E000BD4680BC7047000080B582B000AF7860E4
:1048F00039607B68184A93421AD07B68164A934203
:1049000023D87B68154A934204D07B68144A9342AB
:1049100006D01AE03B68072B12DC3B68DBB217E0DD
:104920003B68012B0EDC3B68DBB20833DBB20FE0E7
:104930003B68052B08DC3B68DBB20A33DBB207E0DF
:1049400000BF02E000BF00E000BF02F055FB1023F3
:1049500018460837BD4680BD0010014000080140E0
:10496000000C014080B582B000AF786039607B6890
:10497000012B10D13B684FF6FF7293420BD10021FF
:104980000748FFF7D3FE01210648FFF7CFFE0221BB
:104990000548FFF7CBFE00BF0837BD4680BD00BF0E
:1049A000580300205C0300206003002080B500AFA6
:1049B0004FF6FF710120FFF7D5FF80BD80B584B0B1
:1049C00000AFF860B9607A6008237A68B968F8685F
:1049D00000F070FF00BF1037BD4680BD80B483B0CB
:1049E00000AF7860034A7B68136000BF0C37BD4698
:1049F00080BC70476403002080B400AF044B0022E9
:104A00001A70044B00221A6000BFBD4680BC70477C
:104A10007C0300208003002080B582B000AF40F20C
:104A200043233B6000237B60074B1B683A4640F200
:104A300011411846FFF7C2FF044B02221A7000BF53
:104A40000837BD4680BD00BF640300207C03002002
:104A500080B582B000AF4FF49A733B6000237B6057
:104A6000054B1B683A4640F211411846FFF7A6FF76
:104A700000BF0837BD4680BD6403002080B582B00A
:104A800000AF34233B6000237B60064B1B683A4633
:104A900040F211411846FFF791FF00BF0837BD46AD
:104AA00080BD00BF6403002080B582B000AF786095
:104AB0003960354B1B78002B05D1344B1B68002B1C
:104AC00001D1FFF7DBFF7B68A3F21153152B57D8F9
:104AD00001A252F823F000BF314B0008814B0008BF
:104AE000814B0008814B0008814B0008814B000876
:104AF000814B0008814B0008814B0008814B000866
:104B0000814B0008814B0008814B0008814B000855
:104B1000814B0008814B0008394B0008514B0008BD
:104B2000814B0008814B0008814B0008694B00084D
:104B3000386800F033F823E03B681B681A0C3B68C8
:104B400004331B681B0413441A46114B1A6017E008
:104B50003B681B681A0C3B6804331B681B04134436
:104B60001A460C4B1A600BE03B681B681A0C3B683A
:104B700004331B681B0413441A46074B1A6000BF1A
:104B800000BF0837BD4680BD7C03002080030020A5
:104B9000680300206C0300207003002080B588B0FB
:104BA00000AF7860434B1B78002B31D1424B1B6820
:104BB000072B27DC414B3B6100237B613B693E4A6D
:104BC000126813433B613C4B1B68002B07D03A4BE8
:104BD0001B68012B03D0384B1B68052B03D13B69A5
:104BE00043F400733B61364B1B6807F1100240F23F
:104BF00011411846FFF7E2FE2F4B1B6801332E4A86
:104C0000136052E0FFF724FF2A4B04221A704CE095
:104C1000284B1B78022B29D140F24333BB60002381
:104C2000FB607B68BB61BB6907331B781A46BB69B5
:104C300006331B781B021A44BB6905331B781B041F
:104C40001A44BB6904331B781B0613441A461D4BD8
:104C50001A601B4B1B6807F1080240F2114118460D
:104C6000FFF7ACFE134B03221A701EE0114B1B78AA
:104C7000032B1AD17B68FB61FB6907331B781A464B
:104C8000FB6906331B781B021A44FB6905331B784A
:104C90001B041A44FB6904331B781B0613441A4691
:104CA000094B1A60034B04221A7000BF2037BD461F
:104CB00080BD00BF7C0300208003002020400064F2
:104CC00064030020740300207803002080B487B0C0
:104CD00000AFF860B9607A603B6000237B61FB68DD
:104CE00041F288321A60BB6800221A607B68002299
:104CF0001A6000233B613EE02D4B1A683B695B0064
:104D000013441B8841F28732934231D8284B1A68EA
:104D10003B695B0013441B88322B29D9244B1A684A
:104D20003B695B0013441B881A46FB681B689A4268
:104D3000A8BF1A46FB681A601D4B1A683B695B00E6
:104D400013441B881A46BB681B689A42B8BF1A46B0
:104D5000BB681A607B681B68154A11683A69520083
:104D60000A4412881A447B681A607B6901337B61AC
:104D70003B6901333B610F4B1B683A699A42BBDBCD
:104D80007B681B685B010C4A82FB03129211DB17E4
:104D9000D21A3B681A607B681A687B6992FBF3F24F
:104DA0007B681A6000BF1C37BD4680BC704700BFDF
:104DB000A4030020A8030020D34D621080B483B068
:104DC00000AF00237B6000233B600CE0104B1A68AF
:104DD0003B68134493F900301A467B6813447B60A8
:104DE0003B6801333B600B4B1B683A689A42EDDB32
:104DF0007B685B017B60074B1B687A6892FBF3F36F
:104E00007B607B6818460C37BD4680BC704700BF8E
:104E1000AC030020B003002080B485B000AF786000
:104E20000023FB600BE0FB685B007A681344198881
:104E3000074AFB6822F81310FB680133FB60FB682C
:104E40000A2BF0D900BF00BF1437BD4680BC7047A5
:104E50008403002080B485B000AF0346FB80642348
:104E6000FB600023BB6033E01E4ABB6832F813309E
:104E7000FA889A4229D8BB68002B02D10023FB6034
:104E800029E0BA6813469B0013445B000A3BFB60B1
:104E9000FB88BA68013A134931F812209A1A13466E
:104EA0009B0013445B0019460E4ABB6832F813306E
:104EB0001846BB68013B0B4A32F81330C31A91FB0A
:104EC000F3F3FA681344FB6005E0BB680133BB6091
:104ED000BB680A2BC8D9FB6818461437BD4680BC8E
:104EE000704700BF8403002080B588B000AF204B1E
:104EF0001B78002B38D102F0A7FD01237B601D4BEE
:104F00001B68BB601C4B1B68FB601C4B1B683B6138
:104F10003B1D0121184602F0A5FD03467B6103F00D
:104F200059F8174802F01CFB0023FB6113E0FB69F2
:104F30009B003A1D1344BB61FB6903F1007303F549
:104F4000F4439A00BB691B681946104603F05CF8ED
:104F5000FB690133FB61FB69042BE8D903F046F8D8
:104F6000034B01221A7000E000BF2037BD4680BD10
:104F7000C0030020B4030020B8030020BC030020BD
:104F800000E8010880B584B000AF0023FB73124B2A
:104F9000BB6002F059FD0121B86802F063FD786042
:104FA000BB681B697A689A4211D1BB681B68012BE8
:104FB0000DD1BB685B68094A1360BB689B68084AEF
:104FC0001360BB68DB68074A13600123FB73FB7B3C
:104FD00018461037BD4680BD00E80108B403002024
:104FE000B8030020BC03002080B582B000AF02F0FF
:104FF0006DFA03467B607A68034B13449B021846A4
:105000000837BD4680BD00BFFEFF410080B5ADF54D
:10501000026D00AFFFF7E8FFC7F80C084FF0FF3351
:10502000C7F81838D7F80C38C7F814380023C7F871
:10503000103811E0D7F814381B68D7F81828134037
:10504000C7F81838D7F810380133C7F81038D7F830
:1050500014380433C7F81438D7F81038B3F5007F84
:10506000E8DB02F0F1FC3B1D4FF400724FF0FF3122
:105070001846FFF718F80023C7F81C383BE0D7F8AC
:105080001C38DBB21846FDF7F5FCC7F80408D7F862
:105090001C38DBB21846FDF78FFD0346194607F5AD
:1050A0000263A3F61C02D7F81C38DB0013440A463F
:1050B000DA70D7F804389B6999B207F50263A3F652
:1050C0001C03D7F81C2823F83210D7F81C38DBB2A1
:1050D0001846FDF737FC0346194607F50263A3F6A9
:1050E0001C02D7F81C38DB0013445960D7F81C3871
:1050F0000133C7F81C38D7F81C38DBB21846FDF767
:10510000CDFC0346002B05D0D7F81C38FE2B01D868
:10511000012300E00023002BB1D13B1D4FF4FF71B0
:10512000184602F09FFC024607F50263A3F61C0333
:10513000C3F8F82702F04EFFD7F81838B3F1FF3F55
:1051400003D0D7F80C0802F00BFA0023C7F81C387C
:1051500018E0D7F81C389B003A1D1344C7F80838EC
:10516000D7F81C389A00D7F80C381A44D7F8083802
:105170001B681946104602F047FFD7F81C38013368
:10518000C7F81C38D7F81C38B3F5007FE1D302F01C
:105190002DFF07F50263A3F61C03D3F8F837184672
:1051A00007F50267BD4680BD80B586B000AFFFF74A
:1051B0001BFF38613B69FB6002F046FC4FF4FF7156
:1051C000F86802F04FFCB860FB68D3F8F837BA68AB
:1051D0009A4231D100237B6129E0FB687A6933F878
:1051E00032301846FDF722FC0346FB71FB79352B64
:1051F0001AD0FB687A6933F83230002B14D0FA6881
:105200007B69DB0013445B681A46FB79114618463C
:10521000FDF7CEFBFA687B69DB001344DA78FB7993
:1052200011461846FDF782FC7B6901337B617B697F
:10523000FE2BD2D9002301E04FF0FF331846183778
:10524000BD4680BD80B582B000AF144B5B68002BBB
:1052500003D11348FFF73AFA1CE000237B600FE00C
:105260000E4A7B68DB0013445A680C497B6811F8CE
:1052700033301946104600F015F87B6801337B6027
:105280007B68032B06D8054A7B68DB0013445B6808
:10529000002BE5D10837BD4680BD00BFF4000020DB
:1052A0002494000880B582B000AF78600B46FB7094
:1052B000FB780A4ADB0013441B791A46084B53F863
:1052C0002220FB78054951F8333079680548FFF70B
:1052D000FDF900BF0837BD4680BD00BF40940008FF
:1052E000E80000203094000880B483B000AF7860FC
:1052F000396000BF0C37BD4680BC704780B588B0B0
:1053000004AFF8607A603B600B46FB72F968FA7A8A
:10531000B7F91C300293BB6901933B6800937B682B
:10532000F86800F0AEFF034618461037BD4680BD52
:1053300080B58AB004AFF8607A603B600B46FB72C0
:10534000FB6803F50271FA7AB7F9243002933B6ADD
:1053500001933B6800937B68F86800F092FF7861E6
:10536000F86800F017FE7B6918461837BD4680BD07
:1053700080B483B000AF786039607B683A68C3F866
:10538000582500BF0C37BD4680BC704780B582B041
:1053900000AF786039607B68D3F87035092B17DC73
:1053A0007B68D3F870353A6891B27A6803F52B734D
:1053B0005B0013440A469A807B68D3F870355A1C08
:1053C0007B68C3F87025786800F0E4FD012300E0F5
:1053D000002318460837BD4680BD80B489B000AFB1
:1053E000F8607A603B600B46FB723B6B00221A70E0
:1053F0000023FB77FB68BB614AE0BB697B6132E05D
:105400007B6904333B6120E03B691A88FB7A9BB2DD
:105410009A4217D17B691B681A467B681A603B6900
:105420001B791A463B681A603B6993F905301A46A6
:10543000BB6A1A603B69B3F902301A46FB6A1A600C
:1054400001232CE03B6906333B617B6904333A69F5
:10545000D31A2A2B04DC3B6993F90530002BD3DCEB
:105460007B6934337B617A69BB69D31AB3F5EA7F10
:1054700004DC7B691B68B3F1FF3FC1D13B6B1B7838
:10548000FB773B6B01221A70FB6803F50273BB616B
:10549000FB7F83F00103DBB2002BAED10023184663
:1054A0002437BD4680BC704780B588B000AF7860B7
:1054B0004FF0FF33FB61786801F0B8F838613B6961
:1054C000BB612F4B01221A7000237B610AE0BB698C
:1054D0001B68FA691340FB617B6901337B61BB691F
:1054E0000433BB617B69B3F5007FF0DB02F0ACFAFB
:1054F00002F070FD022002F063FDFB69B3F1FF3F93
:1055000002D0386902F02CF87B681946786801F0FF
:105510001DF87B6803F502731946786801F016F8E8
:105520007A6882233969786800F07AFF3B6903F56D
:1055300002717B6803F502728223786800F070FFC5
:105540000346FB603B6903F5826107F10C0201230E
:10555000786800F065FF02F049FD7B6819467868BD
:1055600001F02CF87B6803F502731946786801F0A6
:1055700025F8034B00221A7000BF2037BD4680BDBE
:10558000CC03002080B588B000AF78607B68FB61F9
:1055900056E007F10C0300221A605A60FB690433DD
:1055A000BB6137E02E4B1B78DBB2002B54D1BB69BB
:1055B0001B88DBB21846FDF7C5F97861BB69B3F902
:1055C00002301A467B6902FB03F35B117B61BB6906
:1055D00093F905301A4601239340013B7A69134041
:1055E0007B61BB691B791F2B09D93B69BA691279A9
:1055F000203A796901FA02F213433B6107E0FB6844
:10560000BA69127911467A698A401343FB60BB6913
:105610000633BB61FB690433BA69D31A2A2B04DC55
:10562000BB6993F90530002BBCDCFB691B6807F1F3
:105630000C0219467868FFF7C1F9FB693433FB6146
:105640007B68FA69D31AB3F5EA7F06DCFB691B684D
:10565000B3F1FF3F9DD100E000BF2037BD4680BDC4
:10566000CC03002080B582B000AF78607B6819461B
:10567000786800F07AFE7B6803F502731946786853
:1056800000F073FE786800F085FC00BF0837BD4667
:1056900080BD80B584B000AF78600B46FB707B683E
:1056A000FA781946786800F094FDF8607B6803F595
:1056B0000273FA781946786800F08BFD0246FB68A1
:1056C0001344FB60FB6818461037BD4680BD0000E0
:1056D00080B584B000AFF860B9601346FB71FB6819
:1056E0000022C3F81024FB680022C3F85425FB688D
:1056F0004B4AC3F85825FB680022C3F87025FB68A5
:10570000BA68C3F87425F868FFF7ACFFF86800F0D2
:1057100023FDBB68434A934204D0BB68424A93428C
:105720002CD057E04FF40063022200213F4801F0E3
:1057300053FF4FF400613D4802F02DFA4FF48053BF
:1057400002220321394801F047FF142002F0BAFC7D
:10575000F021142002F0C4FC152002F0B3FCF0216B
:10576000152002F0BDFC132002F0ACFCF021132048
:1057700002F0B6FC2E4AFB6813602BE04FF4805316
:10578000022200212B4801F027FF4FF480512948C5
:1057900002F001FA4FF4005302220321254801F0E0
:1057A0001BFF402002F08EFCF021402002F098FC0C
:1057B000412002F087FCF021412002F091FC3F20C3
:1057C00002F080FCF0213F2002F08AFC184AFB68BE
:1057D000536000BFFB68012283F87825FB68D3F88B
:1057E0007435184601F094FCFB791946F86800F00E
:1057F00023F8F86800F0CEFBFB68D3F8743502217B
:10580000184601F08CFDFB68D3F87435102118465A
:1058100001F085FDFB6818461037BD4680BD00BF0E
:10582000E9520008006400400068004000080140A0
:10583000C4030020000C0140B0B58CB00AAF786002
:105840000B46FB707B68D3F87445FA781849134609
:105850005B0013449B000B441968FA781448134604
:105860005B0013449B00034404331868FA78104D1E
:1058700013465B0013449B002B4408331B68002233
:105880000892002207920693059004910023039347
:10589000002302930023019300230093002301229D
:1058A0000021204601F040FC00BF0837BD46B0BDD6
:1058B000A894000880B586B002AFF860B9607A603D
:1058C000FB70FB68D3F874350121184601F02BFDFD
:1058D000FB68D3F87405BB6840F2FF7293428CBF3B
:1058E00001230023DAB27B680193FB780093002345
:1058F000B96801F01DFD0346002B06DAFB68D3F8FA
:105900005435132B01DC012300E00023002B30D0A1
:10591000FB68D3F85435FA6841331B011344043350
:10592000BA681A60FB68D3F85435FA78F9684133DD
:105930001B010B4408331A60FB68D3F854357A68AE
:105940001268F9681B010B4403F21C431A60FB68E0
:10595000D3F854357A685268F9681B010B4403F593
:1059600084631A60FB68D3F854355A1CFB68C3F88B
:105970005425FB68D3F85435002B06DDFB68D3F8BB
:1059800074350121184601F0CAFC00BF1037BD462E
:1059900080BDF0B589B002AF786039600023FB7537
:1059A0000023BB757B683B6142E03B69FB602CE0F8
:1059B000FB680433BB601AE0BB681B88D8B2FB6885
:1059C0001B681946BB681B791D46BB6893F90530F7
:1059D0001E46BB68B3F902301A46BB7D01930092A4
:1059E0003C6833462A46A047BB680633BB60FB6869
:1059F0000433BA68D31A2A2B04DCBB6893F9053048
:105A0000002BD9DCFB683433FB60FA683B69D31A9E
:105A1000B3F5EA7F04DCFB681B68B3F1FF3FC7D135
:105A2000BB7DFB750123BB757B6803F502733B618E
:105A3000FB7D83F00103DBB2002BB6D100BF00BFBA
:105A40001C37BD46F0BD000080B483B000AF786065
:105A50007B68012B04DC054A7B6852F8233000E0A8
:105A6000002318460C37BD4680BC7047C403002095
:105A700080B590B006AF786039608DE07B6893F8B0
:105A8000783503F5C062BB699A4209D17B7D082B4A
:105A900006D107F10C031946786800F010F97BE095
:105AA000524B1B78DBB2002B00D075E07B6803F50E
:105AB0000273BA691946786800F08CFCF861FB69DA
:105AC000002B61D0FB6904337B624BE07B6A1B795E
:105AD0001F2B10D93A697B6A1B79203B22FA03F30A
:105AE0007A6A92F90520114601228A40013A134050
:105AF0005B013B620DE0FB687A6A1279D3407A6AF7
:105B000092F90520114601228A40013A13405B01B7
:105B10003B627B6AB3F902301A463B6A02FB03F32D
:105B20005B113B627B6A1B88DBB21846FCF7B6FF51
:105B30000346002B14BF01230023DBB2002B07D048
:105B40007B6A1B88DBB2396A1846FCF7C7FE06E0A1
:105B50007B6A1B88DBB2396A1846FCF729FF7B6A2F
:105B600006337B62FB6904337A6AD31A2A2B04DC7E
:105B70007B6A93F90530002BA8DC01F019FF02467F
:105B80007B68C3F8102407E07B68D3F85835BA69FE
:105B900007F10C01104698477B68D3F874053B6801
:105BA000D9B207F118020023059307F10C030493FF
:105BB00007F11503039307F11403029307F116038A
:105BC000019307F1170300931346012201F027FC0C
:105BD0000346002B14BF01230023DBB2002B7FF40C
:105BE0004DAF00BF00BF2837BD4680BDCC030020AD
:105BF000B0B586B002AF78607B6803F21443FB60F7
:105C000006E07B68D3F854355A1E7B68C3F85425E8
:105C10007B68D3F85435002B3EDD7B68D3F87405E0
:105C20007B68D3F8543503F18053013B1B01FA68BC
:105C300013441C687B68D3F8543503F18053013B4F
:105C40001B01FA6813441B6840F2FF7293428CBF39
:105C500001230023DDB27B68D3F8543503F1805370
:105C6000013B1B01FA6813445B68DAB27B68D3F826
:105C7000543503F18053013B1B01F9680B44083391
:105C80000193009200232A46214601F051FB03466E
:105C9000002B01DB012300E00023002BB1D17B6846
:105CA000D3F85435002B06D17B68D3F87435012125
:105CB000184601F038FB00BF1037BD46B0BD80B5B7
:105CC0008AB002AF786039603B687B617B69B3F86A
:105CD00001309BB2B3F5005F59D37B69B3F8013053
:105CE0009BB242F20102934251D87B69DB78332B9D
:105CF0004DD87B69DB78FB777B69B3F801309BB2C9
:105D000042F20102934206D17B69DB781846FCF728
:105D10008DFE0346FB777B691B78402B26D17B6980
:105D20005B681A46FB7F11461846FCF7D7FD034611
:105D3000002B0CBF01230023DBB2002B03D07B69B7
:105D400023221A709EE07B6980221A707B690022F0
:105D500042F030021A7100225A71002242F0090208
:105D60009A71002242F00602DA718BE07B691B789F
:105D7000222B40F08780FB7F1846FCF7E3FD0346AB
:105D80001A467B695A607B6943221A707AE07B6904
:105D9000B3F801309BB2B3F5405F62D37B69B3F8CF
:105DA00001309BB2B3F5904F5BD27B69DB78332B2C
:105DB00057D87B691B78402B66D17B695B68DBB267
:105DC0003B617B695B681B0ADBB2FB607B695B68DC
:105DD0001B0CBB607B69B3F801309BB203F48043BA
:105DE000002B12D07B69D9787B69B3F801309BB264
:105DF000C3F30A02BB681BB20193FB6800933B69C3
:105E00007868FFF795FAB86111E07B69D9787B690A
:105E1000B3F801309BB2C3F30A02BB681BB2019313
:105E2000FB6800933B697868FFF768FAB861BB6963
:105E3000002B03DB7B6923221A7025E07B6980221B
:105E40001A707B69002242F030021A7100225A71E6
:105E5000002242F009029A71002242F00602DA7131
:105E600012E07B6980221A707B6900221A7100227D
:105E70005A71002242F002029A71002242F0060298
:105E8000DA7102E000BF00E000BF7B6893F878356C
:105E900003F5B0633A6819467868FEF78FFD00BFD6
:105EA0002037BD4680BDF0B589B004AFF860B96059
:105EB0007A603B607B681B681E463B681B885B0101
:105EC00099B23B6802331B885B0198B23B6804338C
:105ED0001B885B019CB23B6806331B885B019BB24D
:105EE0007A68126802F0010201250295019200937E
:105EF00023460246304601F0F5F9BB6800221A60DD
:105F00007B681B685A1C7B681A603B68063300225A
:105F10001A803A6804321B8813803B680233128867
:105F20001A801A883B681A8000BF1437BD46F0BD3E
:105F300090B587B002AFF860B9607A603B607B686B
:105F40001B681C463B681B68DB0043F004013B6890
:105F500004331B68DB0043F004027B681B6803F01A
:105F6000010301200090204601F0CCF9BB6800221B
:105F70001A607B681B685A1C7B681A603B68043394
:105F800000221A601A683B681A6000BF1437BD46C9
:105F900090BD000080B58CB000AF786007F12003A1
:105FA00000221A605A600023BB610023FB610123B9
:105FB0007B6100233B617B68D3F87435644A93426C
:105FC00005D0644B1B681B0A03F03F0300E000236D
:105FD000FB607B6893F878359BB203F5C0639BB296
:105FE0003B840023FB6246E07A68FB6A03F52B736F
:105FF0005B0013449B88B3F5006F10D37A68FB6A8B
:1060000003F52B735B0013449A883B699B00303384
:106010003B4443F8182C3B6901333B6110E07A693B
:106020007968FB6A03F52B735B000B449988530076
:1060300030333B440A4623F8102C7B6901337B61E3
:106040007B69042B08D107F1200307F10C0207F14B
:1060500014017868FFF727FF3B69022B08D107F18D
:10606000180307F10C0207F110017868FFF760FFD1
:10607000FB6A0133FB627B68D3F87035FA6A9A4297
:10608000B2DB7B6803F50273BB6237E0BB6A1B6857
:10609000B3F5006F0BD33B69BA6A12689B003033CB
:1060A0003B4443F8182C3B6901333B610BE0BB6A6E
:1060B0001A687B6992B25B0030333B4423F8102CA2
:1060C0007B6901337B617B69042B08D107F12003D5
:1060D00007F10C0207F114017868FFF7E4FE3B6951
:1060E000022B08D107F1180307F10C0207F1100188
:1060F0007868FFF71DFFBB6A3433BB627B6803F52A
:106100000273BA6AD31AB3F5EA7F04DCBB6A1B6870
:10611000B3F1FF3FBAD17B69002B08DD07F1200303
:1061200007F10C0207F114017868FFF7BCFE3B6928
:10613000002B08DD07F1180307F10C0207F110012D
:106140007868FFF7F5FE00BF3037BD4680BD00BF61
:1061500000640040006A004080B586B000AF7860FF
:10616000786800F063FA78617B6903F582631B68E5
:106170003B6101F069FC7B694FF48271184601F0C4
:1061800071FCF8603A69FB689A421DD17B687969B5
:1061900082221846FDF76DFF7B6803F502707B696C
:1061A00003F5027382221946FDF763FF7B681946E7
:1061B000786800F003FA7B6803F502731946786883
:1061C00000F0FCF9012300E0002318461837BD4613
:1061D00080BD80B5ADF5087D00AF07F50873A3F568
:1061E0000573186007F50873A3F50673196007F5C2
:1061F0000873A3F219231A7007F1140207F5087344
:10620000A3F505731146186800F0AFF807F5087399
:10621000A3F219231B7807F1140207F50871A1F501
:10622000067107F50870A0F505700968006800F0B0
:1062300022F9C7F81C0207F50873A3F5067207F5E3
:106240000873A3F505731168186800F08EF807F558
:106250000873A3F219231B7807F50872A2F50672DA
:1062600007F1140107F50870A0F5057012680068C1
:1062700000F001F9D7F81C32184607F50877BD463B
:1062800080BD80B588B000AFF860B9603B60134650
:10629000FB713B68B3F1005F02DB4FF0FF3360E05E
:1062A000BB6A3F2B02DD6FF001035AE0FB6A202B33
:1062B00002DD6FF0020354E03B681A46B968F868E3
:1062C00000F088F8F861FB69002B0FD14FF0FF3226
:1062D000B968F86800F07EF8F861FB69002B02D11C
:1062E0006FF003033DE03A68FB691A60FB69043311
:1062F000BB6102E0BB690633BB61BB6993F9053042
:10630000002BF7DCBB6993F90530B3F1FF3F02D1F5
:106310006FF0040325E0FB799AB2BB691A80BB6970
:106320003A8E5A80BB6ADAB2BB691A71FB6A5AB2FA
:10633000BB695A7100237B61BB683B6105E07B69E7
:1063400001337B613B6934333B613A69BB68D31AE3
:10635000B3F5EA7F04DC3B691B68B3F1FF3FEED184
:106360007B6918462037BD4680BD80B485B000AF3C
:10637000786039600023FB6023E0FB68342202FB75
:1063800003F33A6813444FF0FF321A600023BB60F6
:1063900011E0FB68342202FB03F33A68D118BA68B3
:1063A00013465B0013445B000B44093300221A7050
:1063B000BB680133BB60BB68072BEADDFB680133B8
:1063C000FB60FB68092BD8DD00BF00BF1437BD465A
:1063D00080BC704780B487B000AFF860B9607A6065
:1063E00000237B6113E07B69342202FB03F3BA686C
:1063F00013441B687A689A4206D17B69342202FBF7
:1064000003F3BA68134406E07B6901337B617B695F
:10641000092BE8DD002318461C37BD4680BC7047B9
:1064200080B586B000AFF860B9607A603B60002349
:106430007B6100233B6115E07B681B68184601F017
:106440000BFB78613B699A00BB681A447B681B6848
:106450001946104601F0D8FD7B6804337B603B6928
:1064600001333B613A693B689A42E5DB7B69184638
:106470001837BD4680BD80B48BB000AFF860B960FE
:106480007A60FB7000237B6200233B62BB68FB6188
:106490004BE00123FB7600237B61FB6904333B6106
:1064A00023E03B691A88FB789BB29A4217D00023FD
:1064B000FB767B6A342202FB03F37A68D1187A698F
:1064C00013465B0013445B000B443A6904331168C4
:1064D000196092889A807B6901337B6102E03B6A94
:1064E00001333B623B6906333B61FB6904333A6924
:1064F000D31A2A2B04DC3B6993F90530002BD0DC3E
:10650000FB7E83F00103DBB2002B0BD07B6A3422CD
:1065100002FB03F37A681344FA6912681A607B6A13
:1065200001337B62FB693433FB61FA69BB68D31AC0
:10653000B3F5EA7F04DCFB691B68B3F1FF3FA8D128
:106540003B6A18462C37BD4680BC704780B586B084
:1065500000AF786039603B687B6120E07B69043381
:106560003B610EE03B691B88DBB21846FCF782FA00
:10657000F860FB689B699AB23B691A803B690633F5
:106580003B617B6904333A69D31A2A2B04DC3B69EB
:1065900093F90530002BE5DC7B6934337B617A6944
:1065A0003B68D31AB3F5EA7F04DC7B691B68B3F15F
:1065B000FF3FD3D100BF1837BD4680BD80B586B040
:1065C00000AF786039603B687B611FE07B69043312
:1065D0003B610DE03B691B881846FCF727FA034630
:1065E000FB73FB7B9AB23B691A803B6906333B61C4
:1065F0007B6904333A69D31A2A2B04DC3B6993F98B
:106600000530002BE6DC7B6934337B617A693B68BB
:10661000D31AB3F5EA7F04DC7B691B68B3F1FF3F53
:10662000D4D100BF1837BD4680BD000080B584B00E
:1066300000AF786000F04AFF0346FB60FA68034B46
:1066400013449B0218461037BD4680BDFCFF410035
:1066500080B500AF0020FFF7F7F903460021184688
:10666000FFF706FA00BF80BD80B500AF0020FFF73E
:10667000EBF9034601211846FFF7FAF900BF80BD88
:1066800080B500AF0020FFF7DFF903461846FFF79B
:10669000AFFA00BF80BD80B500AF0120FFF7D4F98D
:1066A000034600211846FFF7E3F900BF80BD80B51F
:1066B00000AF0120FFF7C8F9034601211846FFF794
:1066C000D7F900BF80BD80B500AF0120FFF7BCF94E
:1066D00003461846FFF78CFA00BF80BD80B500AFB7
:1066E0000C21114801F013FC0521104801F02BFA90
:1066F00004210E4801F027FA0D4B1A4605210B48DC
:1067000001F033FA4FF400720521084801F03DFA18
:106710000521064801F00EFA4FF40071054801F01A
:1067200042FA00BF80BD00BF0038014000000240B7
:10673000D0030020000C014080B584B000AF786029
:1067400039600521124801F019FA0346C3F50073B8
:10675000FB81FB893A689342A8BF1346BB600CE0FB
:106760003B68013B3B60FB89013BFB81FA893B684D
:1067700079680B4407498A5C1A703B68002B02DD7C
:10678000FB89002BECD1BB6818461037BD4680BD95
:1067900000000240D003002080B582B000AF7860D6
:1067A000396008211D4801F0B2FB05211C4801F0A9
:1067B000CAF904211A4801F0C6F93B689BB21A468F
:1067C0000421174801F0E1F9164B1A460421144838
:1067D00001F0CBF902220421114801F062F90BE02B
:1067E0003B68013B7A681A443B68013B11780D4ACB
:1067F000D1543B68013B3B603B68002BF0DC0A4B0B
:106800001B68094A43F0010313600421044801F0A6
:1068100091F900BF0837BD4680BD00BF0038014078
:1068200000000240D00300200C38014080B400AFCB
:10683000064B1B6803F00403002B14BF0123002345
:10684000DBB21846BD4680BC704700BF0C38014023
:1068500080B500AF044B1B68034A23F0400313606C
:10686000FFF73CFF00BF80BD0038014080B584B019
:1068700000AF03463960FB80FB88184600F086F8BD
:106880000346BB73FB88184600F05DF803467B7334
:106890000023FB73BB7B002B02D17B7B002B22D020
:1068A000BB7B002B0ED07B7B012B0BD1BB7B013B39
:1068B000012202FA03F31AB2B7F9063053401BB2B1
:1068C000FB8010E0BB7B002B05D17B7B012B02D131
:1068D000FF23FB7307E0BB7B002B04D07B7B002BEB
:1068E00001D1FF23FB73FB88184600F08AF80346AA
:1068F0001A463B681A8097F90F3018461037BD4684
:1069000080BD80B584B000AF0346FB80FB8818468D
:1069100000F0ADF80346FB81FB89184600F0DDF876
:106920000346FB81FB89184600F00DF80346DB03A4
:106930001AB2B7F90E3013431BB2FB81FB8918461C
:106940001037BD4680BD80B485B000AF0346FB80E4
:106950000023FB730023BB730FE0FA88BB7B42FA72
:1069600003F35BB203F001035AB297F90F305340BF
:106970005BB2FB73BB7B0133BB73BB7B0F2BECD9CF
:10698000FB7B18461437BD4680BC704780B485B089
:1069900000AF0346FB800023FB730023BB7327E09B
:1069A00000237B731EE07B7B5A1CBB7B012101FA19
:1069B00003F31340002B12DDFA887B7B1A41BB7B6B
:1069C00002FA03F35AB2BB7B012101FA03F35BB273
:1069D00013405AB297F90F3053405BB2FB737B7B85
:1069E00001337B737B7B0E2BDDD9BB7B0133BB7308
:1069F000BB7B032BD4D9FB7B18461437BD4680BC28
:106A0000704780B485B000AF0346FB800023FB8154
:106A100000237B730A233B7320E07B7B002B1AD07F
:106A20007B7B012B17D07B7B032B14D07B7B072B2D
:106A300011D0FA887B7B42FA03F303F001023B7B1F
:106A400002FA03F31AB2B7F90E3013431BB2FB81FB
:106A50003B7B013B3B737B7B01337B737B7B0E2B4F
:106A6000DBD9FB8918461437BD4680BC704780B41B
:106A700085B000AF0346FB800023FB8100237B73BE
:106A80000A233B7320E07B7B002B1AD07B7B012BFE
:106A900017D07B7B032B14D07B7B072B11D0FA887C
:106AA0003B7B42FA03F303F001027B7B02FA03F320
:106AB0001AB2B7F90E3013431BB2FB813B7B013B8B
:106AC0003B737B7B01337B737B7B0E2BDBD9FB8999
:106AD00018461437BD4680BC704780B485B000AFFF
